{
  "_format": "hh-sol-artifact-1",
  "contractName": "SolverAuction",
  "sourceName": "contracts/SolverAuction.sol",
  "abi": [
    {
      "inputs": [],
      "stateMutability": "nonpayable",
      "type": "constructor"
    },
    {
      "inputs": [],
      "name": "AccessControlBadConfirmation",
      "type": "error"
    },
    {
      "inputs": [
        {
          "internalType": "address",
          "name": "account",
          "type": "address"
        },
        {
          "internalType": "bytes32",
          "name": "neededRole",
          "type": "bytes32"
        }
      ],
      "name": "AccessControlUnauthorizedAccount",
      "type": "error"
    },
    {
      "inputs": [
        {
          "internalType": "bytes32",
          "name": "auctionId",
          "type": "bytes32"
        },
        {
          "internalType": "address",
          "name": "solver",
          "type": "address"
        }
      ],
      "name": "AlreadyBid",
      "type": "error"
    },
    {
      "inputs": [
        {
          "internalType": "bytes32",
          "name": "auctionId",
          "type": "bytes32"
        }
      ],
      "name": "AuctionEnded",
      "type": "error"
    },
    {
      "inputs": [
        {
          "internalType": "bytes32",
          "name": "auctionId",
          "type": "bytes32"
        }
      ],
      "name": "AuctionNotActive",
      "type": "error"
    },
    {
      "inputs": [
        {
          "internalType": "bytes32",
          "name": "auctionId",
          "type": "bytes32"
        },
        {
          "internalType": "enum SolverAuction.AuctionState",
          "name": "required",
          "type": "uint8"
        }
      ],
      "name": "AuctionNotInState",
      "type": "error"
    },
    {
      "inputs": [],
      "name": "EnforcedPause",
      "type": "error"
    },
    {
      "inputs": [],
      "name": "ExpectedPause",
      "type": "error"
    },
    {
      "inputs": [],
      "name": "InvalidPrice",
      "type": "error"
    },
    {
      "inputs": [],
      "name": "InvalidStakeAmount",
      "type": "error"
    },
    {
      "inputs": [
        {
          "internalType": "bytes32",
          "name": "auctionId",
          "type": "bytes32"
        }
      ],
      "name": "NoBidsAvailable",
      "type": "error"
    },
    {
      "inputs": [],
      "name": "ReentrancyGuardReentrantCall",
      "type": "error"
    },
    {
      "inputs": [
        {
          "internalType": "address",
          "name": "token",
          "type": "address"
        }
      ],
      "name": "SafeERC20FailedOperation",
      "type": "error"
    },
    {
      "inputs": [
        {
          "internalType": "address",
          "name": "solver",
          "type": "address"
        }
      ],
      "name": "SolverAlreadyRegistered",
      "type": "error"
    },
    {
      "inputs": [
        {
          "internalType": "address",
          "name": "solver",
          "type": "address"
        }
      ],
      "name": "SolverNotRegistered",
      "type": "error"
    },
    {
      "inputs": [],
      "name": "UnauthorizedSolver",
      "type": "error"
    },
    {
      "anonymous": false,
      "inputs": [
        {
          "indexed": true,
          "internalType": "bytes32",
          "name": "auctionId",
          "type": "bytes32"
        }
      ],
      "name": "AuctionCancelled",
      "type": "event"
    },
    {
      "anonymous": false,
      "inputs": [
        {
          "indexed": true,
          "internalType": "bytes32",
          "name": "id",
          "type": "bytes32"
        },
        {
          "indexed": true,
          "internalType": "bytes32",
          "name": "intentId",
          "type": "bytes32"
        },
        {
          "indexed": false,
          "internalType": "uint256",
          "name": "startPrice",
          "type": "uint256"
        },
        {
          "indexed": false,
          "internalType": "uint256",
          "name": "deadline",
          "type": "uint256"
        }
      ],
      "name": "AuctionCreated",
      "type": "event"
    },
    {
      "anonymous": false,
      "inputs": [
        {
          "indexed": true,
          "internalType": "bytes32",
          "name": "auctionId",
          "type": "bytes32"
        },
        {
          "indexed": true,
          "internalType": "address",
          "name": "winner",
          "type": "address"
        },
        {
          "indexed": false,
          "internalType": "uint256",
          "name": "finalPrice",
          "type": "uint256"
        }
      ],
      "name": "AuctionSettled",
      "type": "event"
    },
    {
      "anonymous": false,
      "inputs": [
        {
          "indexed": true,
          "internalType": "bytes32",
          "name": "auctionId",
          "type": "bytes32"
        },
        {
          "indexed": true,
          "internalType": "address",
          "name": "solver",
          "type": "address"
        },
        {
          "indexed": false,
          "internalType": "uint256",
          "name": "price",
          "type": "uint256"
        }
      ],
      "name": "BidAccepted",
      "type": "event"
    },
    {
      "anonymous": false,
      "inputs": [
        {
          "indexed": true,
          "internalType": "bytes32",
          "name": "auctionId",
          "type": "bytes32"
        },
        {
          "indexed": true,
          "internalType": "address",
          "name": "solver",
          "type": "address"
        }
      ],
      "name": "BidRejected",
      "type": "event"
    },
    {
      "anonymous": false,
      "inputs": [
        {
          "indexed": true,
          "internalType": "bytes32",
          "name": "auctionId",
          "type": "bytes32"
        },
        {
          "indexed": true,
          "internalType": "address",
          "name": "solver",
          "type": "address"
        },
        {
          "indexed": false,
          "internalType": "uint256",
          "name": "price",
          "type": "uint256"
        }
      ],
      "name": "BidSubmitted",
      "type": "event"
    },
    {
      "anonymous": false,
      "inputs": [
        {
          "indexed": false,
          "internalType": "address",
          "name": "account",
          "type": "address"
        }
      ],
      "name": "Paused",
      "type": "event"
    },
    {
      "anonymous": false,
      "inputs": [
        {
          "indexed": true,
          "internalType": "bytes32",
          "name": "role",
          "type": "bytes32"
        },
        {
          "indexed": true,
          "internalType": "bytes32",
          "name": "previousAdminRole",
          "type": "bytes32"
        },
        {
          "indexed": true,
          "internalType": "bytes32",
          "name": "newAdminRole",
          "type": "bytes32"
        }
      ],
      "name": "RoleAdminChanged",
      "type": "event"
    },
    {
      "anonymous": false,
      "inputs": [
        {
          "indexed": true,
          "internalType": "bytes32",
          "name": "role",
          "type": "bytes32"
        },
        {
          "indexed": true,
          "internalType": "address",
          "name": "account",
          "type": "address"
        },
        {
          "indexed": true,
          "internalType": "address",
          "name": "sender",
          "type": "address"
        }
      ],
      "name": "RoleGranted",
      "type": "event"
    },
    {
      "anonymous": false,
      "inputs": [
        {
          "indexed": true,
          "internalType": "bytes32",
          "name": "role",
          "type": "bytes32"
        },
        {
          "indexed": true,
          "internalType": "address",
          "name": "account",
          "type": "address"
        },
        {
          "indexed": true,
          "internalType": "address",
          "name": "sender",
          "type": "address"
        }
      ],
      "name": "RoleRevoked",
      "type": "event"
    },
    {
      "anonymous": false,
      "inputs": [
        {
          "indexed": true,
          "internalType": "address",
          "name": "solver",
          "type": "address"
        },
        {
          "indexed": false,
          "internalType": "uint256",
          "name": "stakeAmount",
          "type": "uint256"
        }
      ],
      "name": "SolverRegistered",
      "type": "event"
    },
    {
      "anonymous": false,
      "inputs": [
        {
          "indexed": true,
          "internalType": "address",
          "name": "solver",
          "type": "address"
        },
        {
          "indexed": false,
          "internalType": "uint256",
          "name": "newStake",
          "type": "uint256"
        }
      ],
      "name": "SolverStakeUpdated",
      "type": "event"
    },
    {
      "anonymous": false,
      "inputs": [
        {
          "indexed": true,
          "internalType": "address",
          "name": "solver",
          "type": "address"
        }
      ],
      "name": "SolverUnregistered",
      "type": "event"
    },
    {
      "anonymous": false,
      "inputs": [
        {
          "indexed": false,
          "internalType": "address",
          "name": "account",
          "type": "address"
        }
      ],
      "name": "Unpaused",
      "type": "event"
    },
    {
      "inputs": [],
      "name": "AUCTION_DURATION",
      "outputs": [
        {
          "internalType": "uint256",
          "name": "",
          "type": "uint256"
        }
      ],
      "stateMutability": "view",
      "type": "function"
    },
    {
      "inputs": [],
      "name": "AUCTION_ROLE",
      "outputs": [
        {
          "internalType": "bytes32",
          "name": "",
          "type": "bytes32"
        }
      ],
      "stateMutability": "view",
      "type": "function"
    },
    {
      "inputs": [],
      "name": "DEFAULT_ADMIN_ROLE",
      "outputs": [
        {
          "internalType": "bytes32",
          "name": "",
          "type": "bytes32"
        }
      ],
      "stateMutability": "view",
      "type": "function"
    },
    {
      "inputs": [],
      "name": "FEE_BPS",
      "outputs": [
        {
          "internalType": "uint256",
          "name": "",
          "type": "uint256"
        }
      ],
      "stateMutability": "view",
      "type": "function"
    },
    {
      "inputs": [],
      "name": "GOVERNANCE_ROLE",
      "outputs": [
        {
          "internalType": "bytes32",
          "name": "",
          "type": "bytes32"
        }
      ],
      "stateMutability": "view",
      "type": "function"
    },
    {
      "inputs": [],
      "name": "MIN_STAKE",
      "outputs": [
        {
          "internalType": "uint256",
          "name": "",
          "type": "uint256"
        }
      ],
      "stateMutability": "view",
      "type": "function"
    },
    {
      "inputs": [
        {
          "internalType": "bytes32",
          "name": "auctionId",
          "type": "bytes32"
        },
        {
          "internalType": "bytes32",
          "name": "bidId",
          "type": "bytes32"
        }
      ],
      "name": "acceptBid",
      "outputs": [],
      "stateMutability": "nonpayable",
      "type": "function"
    },
    {
      "inputs": [
        {
          "internalType": "bytes32",
          "name": "",
          "type": "bytes32"
        },
        {
          "internalType": "uint256",
          "name": "",
          "type": "uint256"
        }
      ],
      "name": "auctionBids",
      "outputs": [
        {
          "internalType": "bytes32",
          "name": "id",
          "type": "bytes32"
        },
        {
          "internalType": "bytes32",
          "name": "auctionId",
          "type": "bytes32"
        },
        {
          "internalType": "address",
          "name": "solver",
          "type": "address"
        },
        {
          "internalType": "uint256",
          "name": "price",
          "type": "uint256"
        },
        {
          "internalType": "uint256",
          "name": "estimatedGas",
          "type": "uint256"
        },
        {
          "internalType": "uint256",
          "name": "executionTime",
          "type": "uint256"
        },
        {
          "internalType": "bytes32",
          "name": "routeId",
          "type": "bytes32"
        },
        {
          "internalType": "enum SolverAuction.BidState",
          "name": "state",
          "type": "uint8"
        },
        {
          "internalType": "uint256",
          "name": "submittedAt",
          "type": "uint256"
        }
      ],
      "stateMutability": "view",
      "type": "function"
    },
    {
      "inputs": [
        {
          "internalType": "bytes32",
          "name": "",
          "type": "bytes32"
        }
      ],
      "name": "auctions",
      "outputs": [
        {
          "internalType": "bytes32",
          "name": "id",
          "type": "bytes32"
        },
        {
          "internalType": "bytes32",
          "name": "intentId",
          "type": "bytes32"
        },
        {
          "internalType": "address",
          "name": "tokenIn",
          "type": "address"
        },
        {
          "internalType": "address",
          "name": "tokenOut",
          "type": "address"
        },
        {
          "internalType": "uint256",
          "name": "amountIn",
          "type": "uint256"
        },
        {
          "internalType": "uint256",
          "name": "startPrice",
          "type": "uint256"
        },
        {
          "internalType": "uint256",
          "name": "endPrice",
          "type": "uint256"
        },
        {
          "internalType": "uint256",
          "name": "currentPrice",
          "type": "uint256"
        },
        {
          "internalType": "uint256",
          "name": "deadline",
          "type": "uint256"
        },
        {
          "internalType": "uint256",
          "name": "settledAt",
          "type": "uint256"
        },
        {
          "internalType": "enum SolverAuction.AuctionState",
          "name": "state",
          "type": "uint8"
        },
        {
          "internalType": "address",
          "name": "winner",
          "type": "address"
        },
        {
          "internalType": "uint256",
          "name": "finalPrice",
          "type": "uint256"
        },
        {
          "internalType": "uint256",
          "name": "solverFee",
          "type": "uint256"
        }
      ],
      "stateMutability": "view",
      "type": "function"
    },
    {
      "inputs": [
        {
          "internalType": "bytes32",
          "name": "auctionId",
          "type": "bytes32"
        }
      ],
      "name": "cancelAuction",
      "outputs": [],
      "stateMutability": "nonpayable",
      "type": "function"
    },
    {
      "inputs": [
        {
          "internalType": "bytes32",
          "name": "intentId",
          "type": "bytes32"
        },
        {
          "internalType": "address",
          "name": "tokenIn",
          "type": "address"
        },
        {
          "internalType": "address",
          "name": "tokenOut",
          "type": "address"
        },
        {
          "internalType": "uint256",
          "name": "amountIn",
          "type": "uint256"
        },
        {
          "internalType": "uint256",
          "name": "startPrice",
          "type": "uint256"
        }
      ],
      "name": "createAuction",
      "outputs": [
        {
          "internalType": "bytes32",
          "name": "",
          "type": "bytes32"
        }
      ],
      "stateMutability": "nonpayable",
      "type": "function"
    },
    {
      "inputs": [],
      "name": "getActiveSolvers",
      "outputs": [
        {
          "internalType": "address[]",
          "name": "",
          "type": "address[]"
        }
      ],
      "stateMutability": "view",
      "type": "function"
    },
    {
      "inputs": [
        {
          "internalType": "bytes32",
          "name": "auctionId",
          "type": "bytes32"
        }
      ],
      "name": "getAuctionBids",
      "outputs": [
        {
          "components": [
            {
              "internalType": "bytes32",
              "name": "id",
              "type": "bytes32"
            },
            {
              "internalType": "bytes32",
              "name": "auctionId",
              "type": "bytes32"
            },
            {
              "internalType": "address",
              "name": "solver",
              "type": "address"
            },
            {
              "internalType": "uint256",
              "name": "price",
              "type": "uint256"
            },
            {
              "internalType": "uint256",
              "name": "estimatedGas",
              "type": "uint256"
            },
            {
              "internalType": "uint256",
              "name": "executionTime",
              "type": "uint256"
            },
            {
              "internalType": "bytes32",
              "name": "routeId",
              "type": "bytes32"
            },
            {
              "internalType": "enum SolverAuction.BidState",
              "name": "state",
              "type": "uint8"
            },
            {
              "internalType": "uint256",
              "name": "submittedAt",
              "type": "uint256"
            }
          ],
          "internalType": "struct SolverAuction.Bid[]",
          "name": "",
          "type": "tuple[]"
        }
      ],
      "stateMutability": "view",
      "type": "function"
    },
    {
      "inputs": [
        {
          "internalType": "bytes32",
          "name": "role",
          "type": "bytes32"
        }
      ],
      "name": "getRoleAdmin",
      "outputs": [
        {
          "internalType": "bytes32",
          "name": "",
          "type": "bytes32"
        }
      ],
      "stateMutability": "view",
      "type": "function"
    },
    {
      "inputs": [
        {
          "internalType": "address",
          "name": "solver",
          "type": "address"
        }
      ],
      "name": "getSolverAuctions",
      "outputs": [
        {
          "internalType": "bytes32[]",
          "name": "",
          "type": "bytes32[]"
        }
      ],
      "stateMutability": "view",
      "type": "function"
    },
    {
      "inputs": [
        {
          "internalType": "bytes32",
          "name": "role",
          "type": "bytes32"
        },
        {
          "internalType": "address",
          "name": "account",
          "type": "address"
        }
      ],
      "name": "grantRole",
      "outputs": [],
      "stateMutability": "nonpayable",
      "type": "function"
    },
    {
      "inputs": [
        {
          "internalType": "bytes32",
          "name": "",
          "type": "bytes32"
        },
        {
          "internalType": "address",
          "name": "",
          "type": "address"
        }
      ],
      "name": "hasBid",
      "outputs": [
        {
          "internalType": "bool",
          "name": "",
          "type": "bool"
        }
      ],
      "stateMutability": "view",
      "type": "function"
    },
    {
      "inputs": [
        {
          "internalType": "bytes32",
          "name": "role",
          "type": "bytes32"
        },
        {
          "internalType": "address",
          "name": "account",
          "type": "address"
        }
      ],
      "name": "hasRole",
      "outputs": [
        {
          "internalType": "bool",
          "name": "",
          "type": "bool"
        }
      ],
      "stateMutability": "view",
      "type": "function"
    },
    {
      "inputs": [],
      "name": "pause",
      "outputs": [],
      "stateMutability": "nonpayable",
      "type": "function"
    },
    {
      "inputs": [],
      "name": "paused",
      "outputs": [
        {
          "internalType": "bool",
          "name": "",
          "type": "bool"
        }
      ],
      "stateMutability": "view",
      "type": "function"
    },
    {
      "inputs": [
        {
          "internalType": "address",
          "name": "solver",
          "type": "address"
        },
        {
          "internalType": "uint256",
          "name": "stakeAmount",
          "type": "uint256"
        }
      ],
      "name": "registerSolver",
      "outputs": [],
      "stateMutability": "nonpayable",
      "type": "function"
    },
    {
      "inputs": [
        {
          "internalType": "bytes32",
          "name": "role",
          "type": "bytes32"
        },
        {
          "internalType": "address",
          "name": "callerConfirmation",
          "type": "address"
        }
      ],
      "name": "renounceRole",
      "outputs": [],
      "stateMutability": "nonpayable",
      "type": "function"
    },
    {
      "inputs": [
        {
          "internalType": "bytes32",
          "name": "role",
          "type": "bytes32"
        },
        {
          "internalType": "address",
          "name": "account",
          "type": "address"
        }
      ],
      "name": "revokeRole",
      "outputs": [],
      "stateMutability": "nonpayable",
      "type": "function"
    },
    {
      "inputs": [
        {
          "internalType": "bytes32",
          "name": "auctionId",
          "type": "bytes32"
        }
      ],
      "name": "settleAuctionDutch",
      "outputs": [],
      "stateMutability": "nonpayable",
      "type": "function"
    },
    {
      "inputs": [
        {
          "internalType": "address",
          "name": "",
          "type": "address"
        },
        {
          "internalType": "uint256",
          "name": "",
          "type": "uint256"
        }
      ],
      "name": "solverAuctions",
      "outputs": [
        {
          "internalType": "bytes32",
          "name": "",
          "type": "bytes32"
        }
      ],
      "stateMutability": "view",
      "type": "function"
    },
    {
      "inputs": [
        {
          "internalType": "address",
          "name": "",
          "type": "address"
        }
      ],
      "name": "solvers",
      "outputs": [
        {
          "internalType": "address",
          "name": "addr",
          "type": "address"
        },
        {
          "internalType": "uint256",
          "name": "stakedAmount",
          "type": "uint256"
        },
        {
          "internalType": "uint256",
          "name": "totalSolved",
          "type": "uint256"
        },
        {
          "internalType": "uint256",
          "name": "successRate",
          "type": "uint256"
        },
        {
          "internalType": "uint256",
          "name": "averageExecutionTime",
          "type": "uint256"
        },
        {
          "internalType": "bool",
          "name": "isActive",
          "type": "bool"
        },
        {
          "internalType": "uint256",
          "name": "registeredAt",
          "type": "uint256"
        }
      ],
      "stateMutability": "view",
      "type": "function"
    },
    {
      "inputs": [
        {
          "internalType": "bytes32",
          "name": "auctionId",
          "type": "bytes32"
        },
        {
          "internalType": "uint256",
          "name": "price",
          "type": "uint256"
        },
        {
          "internalType": "uint256",
          "name": "estimatedGas",
          "type": "uint256"
        },
        {
          "internalType": "uint256",
          "name": "executionTime",
          "type": "uint256"
        },
        {
          "internalType": "bytes32",
          "name": "routeId",
          "type": "bytes32"
        }
      ],
      "name": "submitBid",
      "outputs": [],
      "stateMutability": "nonpayable",
      "type": "function"
    },
    {
      "inputs": [
        {
          "internalType": "bytes4",
          "name": "interfaceId",
          "type": "bytes4"
        }
      ],
      "name": "supportsInterface",
      "outputs": [
        {
          "internalType": "bool",
          "name": "",
          "type": "bool"
        }
      ],
      "stateMutability": "view",
      "type": "function"
    },
    {
      "inputs": [],
      "name": "unpause",
      "outputs": [],
      "stateMutability": "nonpayable",
      "type": "function"
    },
    {
      "inputs": [
        {
          "internalType": "address",
          "name": "solver",
          "type": "address"
        }
      ],
      "name": "unregisterSolver",
      "outputs": [],
      "stateMutability": "nonpayable",
      "type": "function"
    }
  ],
  "bytecode": "0x608060405234801561000f575f80fd5b5060017f9b779b17422d0df92223018b32b4d1fa46e071723d6817e2486d003becc55f005561003e5f3361009a565b506100697f71840dc4906352362b0cdaf79870196c8e42acafade72d5d5a6d59291253ceb13361009a565b506100947fc5e2d1653feba496cf5ce3a744b90ea18acf0df3d036aba9b2f85992a14679063361009a565b50610143565b5f828152602081815260408083206001600160a01b038516845290915281205460ff1661013a575f838152602081815260408083206001600160a01b03861684529091529020805460ff191660011790556100f23390565b6001600160a01b0316826001600160a01b0316847f2f8788117e7eff1d82e926ec794901d17c78024a50270940304540a733656f0d60405160405180910390a450600161013d565b505f5b92915050565b612124806101505f395ff3fe608060405234801561000f575f80fd5b50600436106101d1575f3560e01c80638456cb59116100fe578063a4481de41161009e578063cb1c2b5c1161006e578063cb1c2b5c14610510578063d547741f14610520578063f36c8f5c14610533578063faf13a4714610547575f80fd5b8063a4481de4146104cf578063a7781db8146104e2578063be44ea97146104f5578063bf333f2c14610508575f80fd5b806395e4eb0c116100d957806395e4eb0c1461048a5780639b680e7d1461049f578063a217fddf146104bf578063a271e525146104c6575f80fd5b80638456cb591461045c57806391d14854146104645780639527f9be14610477575f80fd5b806336568abe11610174578063430730a311610144578063430730a31461039257806357f58d98146103a657806359b017ab1461043e5780635c975abb14610451575f80fd5b806336568abe1461033c5780633dc37c891461034f5780633ef4d130146103775780633f4ba83a1461038a575f80fd5b8063248a9ca3116101af578063248a9ca3146102b95780632be38238146102e95780632f2ff15d146102fc578063346c2b9d1461030f575f80fd5b806301ffc9a7146101d5578063076c71a1146101fd5780631edbc5be14610212575b5f80fd5b6101e86101e3366004611c3b565b610567565b60405190151581526020015b60405180910390f35b61021061020b366004611c84565b61059d565b005b61029f610220366004611c9d565b600560208190525f918252604090912080546001820154600283015460038401546004850154958501546006860154600787015460088801546009890154600a8a0154600b8b0154600c909b0154999b989a6001600160a01b039889169a97891699989697959694959394929360ff831693610100909304909216918e565b6040516101f49e9d9c9b9a99989796959493929190611cdc565b6102db6102c7366004611c9d565b5f9081526020819052604090206001015490565b6040519081526020016101f4565b6102db6102f7366004611d6a565b610671565b61021061030a366004611db4565b61093e565b6101e861031d366004611db4565b600760209081525f928352604080842090915290825290205460ff1681565b61021061034a366004611db4565b610968565b61036261035d366004611dde565b6109a0565b6040516101f499989796959493929190611e0e565b610210610385366004611c9d565b610a11565b610210610ab1565b6102db5f805160206120af83398151915281565b6103fd6103b4366004611c84565b600460208190525f918252604090912080546001820154600283015460038401549484015460058501546006909501546001600160a01b039094169592949193909160ff169087565b604080516001600160a01b03909816885260208801969096529486019390935260608501919091526080840152151560a083015260c082015260e0016101f4565b6102db61044c366004611e6a565b610ad3565b60015460ff166101e8565b610210610afe565b6101e8610472366004611db4565b610b1d565b610210610485366004611dde565b610b45565b610492610e1e565b6040516101f49190611e92565b6104b26104ad366004611c9d565b610f94565b6040516101f49190611edd565b6102db5f81565b6102db61025881565b6102106104dd366004611c9d565b611090565b6102106104f0366004611e6a565b611392565b610210610503366004611f7c565b61152a565b6102db603281565b6102db6802b5e3af16b188000081565b61021061052e366004611db4565b611863565b6102db5f805160206120cf83398151915281565b61055a610555366004611c84565b611887565b6040516101f49190611fb3565b5f6001600160e01b03198216637965db0b60e01b148061059757506301ffc9a760e01b6001600160e01b03198316145b92915050565b5f805160206120cf8339815191526105b4816118f0565b6001600160a01b0382165f9081526004602052604090206005015460ff166105ff5760405163292cdffd60e01b81526001600160a01b03831660048201526024015b60405180910390fd5b6001600160a01b0382165f90815260046020526040902060018101546005909101805460ff191690558015610639576106395f84836118fa565b6040516001600160a01b038416907fad70c7868f434db196bcbdf4dc38f1152191de247515db99c79657134f9cd400905f90a2505050565b5f5f805160206120af833981519152610689816118f0565b61069161192f565b82158061069c575083155b156106b95760405162bfc92160e01b815260040160405180910390fd5b5f87426002546040516020016106e2939291909283526020830191909152604082015260600190565b60408051601f198184030181529190528051602090910120600280549192505f61070b83611ffe565b909155505f9050606461071f866050612016565b610729919061202d565b90505f6107386102584261204c565b9050604051806101c001604052808481526020018b81526020018a6001600160a01b03168152602001896001600160a01b031681526020018881526020018781526020018381526020018781526020018281526020015f8152602001600160048111156107a7576107a7611cb4565b81526020015f6001600160a01b031681526020015f81526020015f81525060055f8581526020019081526020015f205f820151815f0155602082015181600101556040820151816002015f6101000a8154816001600160a01b0302191690836001600160a01b031602179055506060820151816003015f6101000a8154816001600160a01b0302191690836001600160a01b031602179055506080820151816004015560a0820151816005015560c0820151816006015560e082015181600701556101008201518160080155610120820151816009015561014082015181600a015f6101000a81548160ff021916908360048111156108a8576108a8611cb4565b0217905550610160820151600a820180546001600160a01b0390921661010002610100600160a81b0319909216919091179055610180820151600b8201556101a090910151600c9091015560408051878152602081018390528b9185917fda7088aee365fa351ead4ef32209bf01fc8772aa79ae51e1429d105fa89f45e9910160405180910390a3509098975050505050505050565b5f82815260208190526040902060010154610958816118f0565b6109628383611955565b50505050565b6001600160a01b03811633146109915760405163334bd91960e11b815260040160405180910390fd5b61099b82826119e4565b505050565b6006602052815f5260405f2081815481106109b9575f80fd5b5f9182526020909120600990910201805460018201546002830154600384015460048501546005860154600687015460078801546008909801549699509497506001600160a01b0390931695919490939160ff169089565b5f805160206120af833981519152610a28816118f0565b5f8281526005602052604090206001600a82015460ff166004811115610a5057610a50611cb4565b14610a735782600160405163e5707b1d60e01b81526004016105f692919061205f565b600a8101805460ff1916600417905560405183907fd88fab4b08bf76f15cf2d6e03e382acf1edd6790ab82967e406abac37db20288905f90a2505050565b5f805160206120cf833981519152610ac8816118f0565b610ad0611a4d565b50565b6008602052815f5260405f208181548110610aec575f80fd5b905f5260205f20015f91509150505481565b5f805160206120cf833981519152610b15816118f0565b610ad0611a9f565b5f918252602082815260408084206001600160a01b0393909316845291905290205460ff1690565b5f805160206120af833981519152610b5c816118f0565b5f8381526005602052604090206001600a82015460ff166004811115610b8457610b84611cb4565b14610ba75783600160405163e5707b1d60e01b81526004016105f692919061205f565b5f848152600660205260408120905f19905b8254811015610bf95785838281548110610bd557610bd5612073565b905f5260205f2090600902015f015403610bf157809150610bf9565b600101610bb9565b505f198103610c1a5760405162bfc92160e01b815260040160405180910390fd5b5f828281548110610c2d57610c2d612073565b5f918252602082206009918202016002810154600380830154600784018054600160ff19909116179055600a8a0180546001600160a81b0319166001600160a01b03909416610100810294909417909217909155600b89018190554293890193909355909350915b8554811015610cf357848114610ceb576002868281548110610cb957610cb9612073565b5f9182526020909120600760099092020101805460ff19166001836003811115610ce557610ce5611cb4565b02179055505b600101610c95565b506001600160a01b0382165f9081526004602052604090206005015460ff1615610d8b576001600160a01b0382165f9081526004602052604081206002810180549192610d3f83611ffe565b9091555050600281015415610d89576002810154610d5e600182612087565b8260030154610d6d9190612016565b610d799061271061204c565b610d83919061202d565b60038201555b505b816001600160a01b0316897f11584506704f1759083d660085355522a050c85b08441c428accd0ce05f9692883604051610dc791815260200190565b60405180910390a3816001600160a01b0316897fa6d7caa325bd06c767ae7505be45dbb3ed3302a742cde6bc78d0ec0cf24a5d7083604051610e0b91815260200190565b60405180910390a3505050505050505050565b60605f60035467ffffffffffffffff811115610e3c57610e3c61209a565b604051908082528060200260200182016040528015610e65578160200160208202803683370190505b5090505f805b600354811015610eef575f610e8182600161204c565b6001600160a01b0381165f9081526004602052604090206005015490915060ff1615610ee657808484610eb381611ffe565b955081518110610ec557610ec5612073565b60200260200101906001600160a01b031690816001600160a01b0316815250505b50600101610e6b565b505f8167ffffffffffffffff811115610f0a57610f0a61209a565b604051908082528060200260200182016040528015610f33578160200160208202803683370190505b5090505f5b82811015610f8c57838181518110610f5257610f52612073565b6020026020010151828281518110610f6c57610f6c612073565b6001600160a01b0390921660209283029190910190910152600101610f38565b509392505050565b606060065f8381526020019081526020015f20805480602002602001604051908101604052809291908181526020015f905b82821015611085575f8481526020908190206040805161012081018252600986029092018054835260018101549383019390935260028301546001600160a01b031690820152600380830154606083015260048301546080830152600583015460a0830152600683015460c0830152600783015491929160e084019160ff9091169081111561105757611057611cb4565b600381111561106857611068611cb4565b815260200160088201548152505081526020019060010190610fc6565b505050509050919050565b5f805160206120af8339815191526110a7816118f0565b5f8281526005602052604090206001600a82015460ff1660048111156110cf576110cf611cb4565b146110f25782600160405163e5707b1d60e01b81526004016105f692919061205f565b806008015442101561111a57604051633b4e977760e11b8152600481018490526024016105f6565b5f838152600660205260408120805490910361116f57600a8201805460ff1916600417905560405184907fd88fab4b08bf76f15cf2d6e03e382acf1edd6790ab82967e406abac37db20288905f90a250505050565b5f60015b82548110156111d25782828154811061118e5761118e612073565b905f5260205f209060090201600301548382815481106111b0576111b0612073565b905f5260205f2090600902016003015410156111ca578091505b600101611173565b505f8282815481106111e6576111e6612073565b5f918252602082206009918202016002810154600380830154600784018054600160ff19909116179055600a8a0180546001600160a81b0319166001600160a01b03909416610100810294909417909217909155600b89018190554293890193909355909350915b85548110156112ac578481146112a457600286828154811061127257611272612073565b5f9182526020909120600760099092020101805460ff1916600183600381111561129e5761129e611cb4565b02179055505b60010161124e565b506001600160a01b0382165f9081526004602052604090206005015460ff16156112ff576001600160a01b0382165f90815260046020526040812060028101805491926112f883611ffe565b9190505550505b816001600160a01b0316887f11584506704f1759083d660085355522a050c85b08441c428accd0ce05f969288360405161133b91815260200190565b60405180910390a3816001600160a01b0316887fa6d7caa325bd06c767ae7505be45dbb3ed3302a742cde6bc78d0ec0cf24a5d708360405161137f91815260200190565b60405180910390a35050505050505b5050565b5f805160206120cf8339815191526113a9816118f0565b6802b5e3af16b18800008210156113d357604051630103be3b60e21b815260040160405180910390fd5b6001600160a01b0383165f9081526004602052604090206005015460ff161561141a57604051630884073d60e21b81526001600160a01b03841660048201526024016105f6565b6114265f333085611ada565b6040805160e0810182526001600160a01b0385811680835260208084018781525f8587018181526060870182815260808801838152600160a08a018181524260c08c019081529886526004978890529a852099518a546001600160a01b03191699169890981789559351968801969096555160028701559351600380870191909155905191850191909155935160058401805460ff191691151591909117905551600690920191909155815491906114dd83611ffe565b9190505550826001600160a01b03167f271189a01893de7d6e2393bddba4f8a3774c2e566989750f1b19ff02ac4c790f8360405161151d91815260200190565b60405180910390a2505050565b335f9081526004602052604090206005015460ff1661155e5760405163292cdffd60e01b81523360048201526024016105f6565b8460015f828152600560205260409020600a015460ff16600481111561158657611586611cb4565b146115a757604051633b4e977760e11b8152600481018290526024016105f6565b5f818152600560205260409020600801544211156115db5760405163088fa05360e31b8152600481018290526024016105f6565b5f86815260076020908152604080832033845290915290205460ff161561161e576040516392752ac760e01b8152600481018790523360248201526044016105f6565b84158061163a57505f8681526005602052604090206007015485115b156116575760405162bfc92160e01b815260040160405180910390fd5b5f86815260076020908152604080832033808552908352818420805460ff1916600117905581519283018a905260601b6bffffffffffffffffffffffff19169082015242605482015260740160405160208183030381529060405280519060200120905060065f8881526020019081526020015f20604051806101200160405280838152602001898152602001336001600160a01b031681526020018881526020018781526020018681526020018581526020015f600381111561171d5761171d611cb4565b8152426020918201528254600180820185555f948552938290208351600990920201908155908201518184015560408201516002820180546001600160a01b0319166001600160a01b0390921691909117905560608201516003808301919091556080830151600483015560a0830151600583015560c0830151600683015560e0830151600783018054949593949193909260ff199092169184908111156117c7576117c7611cb4565b02179055506101009190910151600891820155335f908152602091825260408082208054600181018255908352838320018a905589825260059092522060070154861015611823575f8781526005602052604090206007018690555b604051868152339088907f50fe806ad7090c0b4c89850edc7f5f0619df0b894aa98735d1d54c60548bf2869060200160405180910390a350505050505050565b5f8281526020819052604090206001015461187d816118f0565b61096283836119e4565b6001600160a01b0381165f908152600860209081526040918290208054835181840281018401909452808452606093928301828280156118e457602002820191905f5260205f20905b8154815260200190600101908083116118d0575b50505050509050919050565b610ad08133611b10565b6119078383836001611b49565b61099b57604051635274afe760e01b81526001600160a01b03841660048201526024016105f6565b60015460ff16156119535760405163d93c066560e01b815260040160405180910390fd5b565b5f6119608383610b1d565b6119dd575f838152602081815260408083206001600160a01b03861684529091529020805460ff191660011790556119953390565b6001600160a01b0316826001600160a01b0316847f2f8788117e7eff1d82e926ec794901d17c78024a50270940304540a733656f0d60405160405180910390a4506001610597565b505f610597565b5f6119ef8383610b1d565b156119dd575f838152602081815260408083206001600160a01b0386168085529252808320805460ff1916905551339286917ff6391f5c32d9c69d2a47ea670b442974b53935d1edc7fd64eb21e047a839171b9190a4506001610597565b611a55611bab565b6001805460ff191690557f5db9ee0a495bf2e6ff9c91a7834c1ba4fdd244a5e8aa4e537bd38aeae4b073aa335b6040516001600160a01b03909116815260200160405180910390a1565b611aa761192f565b6001805460ff1916811790557f62e78cea01bee320cd4e420270b5ea74000d11b0c9f74754ebdbfc544b05a25833611a82565b611ae8848484846001611bce565b61096257604051635274afe760e01b81526001600160a01b03851660048201526024016105f6565b611b1a8282610b1d565b61138e5760405163e2517d3f60e01b81526001600160a01b0382166004820152602481018390526044016105f6565b60405163a9059cbb60e01b5f8181526001600160a01b038616600452602485905291602083604481808b5af1925060015f51148316611b9f578383151615611b93573d5f823e3d81fd5b5f873b113d1516831692505b60405250949350505050565b60015460ff1661195357604051638dfc202b60e01b815260040160405180910390fd5b6040516323b872dd60e01b5f8181526001600160a01b038781166004528616602452604485905291602083606481808c5af1925060015f51148316611c2a578383151615611c1e573d5f823e3d81fd5b5f883b113d1516831692505b604052505f60605295945050505050565b5f60208284031215611c4b575f80fd5b81356001600160e01b031981168114611c62575f80fd5b9392505050565b80356001600160a01b0381168114611c7f575f80fd5b919050565b5f60208284031215611c94575f80fd5b611c6282611c69565b5f60208284031215611cad575f80fd5b5035919050565b634e487b7160e01b5f52602160045260245ffd5b60058110611cd857611cd8611cb4565b9052565b8e8152602081018e90526001600160a01b038d811660408301528c166060820152608081018b905260a081018a905260c0810189905260e08101889052610100810187905261012081018690526101c08101611d3c610140830187611cc8565b6001600160a01b0385166101608301526101808201939093526101a001529c9b505050505050505050505050565b5f805f805f60a08688031215611d7e575f80fd5b85359450611d8e60208701611c69565b9350611d9c60408701611c69565b94979396509394606081013594506080013592915050565b5f8060408385031215611dc5575f80fd5b82359150611dd560208401611c69565b90509250929050565b5f8060408385031215611def575f80fd5b50508035926020909101359150565b60048110611cd857611cd8611cb4565b898152602081018990526001600160a01b0388166040820152606081018790526080810186905260a0810185905260c081018490526101208101611e5560e0830185611dfe565b826101008301529a9950505050505050505050565b5f8060408385031215611e7b575f80fd5b611e8483611c69565b946020939093013593505050565b602080825282518282018190525f918401906040840190835b81811015611ed25783516001600160a01b0316835260209384019390920191600101611eab565b509095945050505050565b602080825282518282018190525f918401906040840190835b81811015611ed2578351805184526020810151602085015260018060a01b036040820151166040850152606081015160608501526080810151608085015260a081015160a085015260c081015160c085015260e0810151611f5a60e0860182611dfe565b5061010090810151908401526020939093019261012090920191600101611ef6565b5f805f805f60a08688031215611f90575f80fd5b505083359560208501359550604085013594606081013594506080013592509050565b602080825282518282018190525f918401906040840190835b81811015611ed2578351835260209384019390920191600101611fcc565b634e487b7160e01b5f52601160045260245ffd5b5f6001820161200f5761200f611fea565b5060010190565b808202811582820484141761059757610597611fea565b5f8261204757634e487b7160e01b5f52601260045260245ffd5b500490565b8082018082111561059757610597611fea565b82815260408101611c626020830184611cc8565b634e487b7160e01b5f52603260045260245ffd5b8181038181111561059757610597611fea565b634e487b7160e01b5f52604160045260245ffdfec5e2d1653feba496cf5ce3a744b90ea18acf0df3d036aba9b2f85992a146790671840dc4906352362b0cdaf79870196c8e42acafade72d5d5a6d59291253ceb1a2646970667358221220fe84b5f60e2bad464a05d86220938448f8cf3c8eff710c0b5215c9cbf140e73764736f6c634300081a0033",
  "linkReferences": {},
  "deployedLinkReferences": {}
}