{
  "_format": "hh-sol-artifact-1",
  "contractName": "IntentRouter",
  "sourceName": "contracts/IntentRouter.sol",
  "abi": [
    {
      "inputs": [],
      "stateMutability": "nonpayable",
      "type": "constructor"
    },
    {
      "inputs": [],
      "name": "AccessControlBadConfirmation",
      "type": "error"
    },
    {
      "inputs": [
        {
          "internalType": "address",
          "name": "account",
          "type": "address"
        },
        {
          "internalType": "bytes32",
          "name": "neededRole",
          "type": "bytes32"
        }
      ],
      "name": "AccessControlUnauthorizedAccount",
      "type": "error"
    },
    {
      "inputs": [],
      "name": "EnforcedPause",
      "type": "error"
    },
    {
      "inputs": [],
      "name": "ExpectedPause",
      "type": "error"
    },
    {
      "inputs": [],
      "name": "InsufficientAmount",
      "type": "error"
    },
    {
      "inputs": [
        {
          "internalType": "bytes32",
          "name": "id",
          "type": "bytes32"
        }
      ],
      "name": "IntentNotActive",
      "type": "error"
    },
    {
      "inputs": [],
      "name": "InvalidChain",
      "type": "error"
    },
    {
      "inputs": [],
      "name": "InvalidIntentParameters",
      "type": "error"
    },
    {
      "inputs": [],
      "name": "ReentrancyGuardReentrantCall",
      "type": "error"
    },
    {
      "inputs": [
        {
          "internalType": "address",
          "name": "token",
          "type": "address"
        }
      ],
      "name": "SafeERC20FailedOperation",
      "type": "error"
    },
    {
      "inputs": [],
      "name": "UnauthorizedCaller",
      "type": "error"
    },
    {
      "anonymous": false,
      "inputs": [
        {
          "indexed": true,
          "internalType": "bytes32",
          "name": "id",
          "type": "bytes32"
        },
        {
          "indexed": true,
          "internalType": "address",
          "name": "user",
          "type": "address"
        },
        {
          "indexed": false,
          "internalType": "address",
          "name": "tokenIn",
          "type": "address"
        },
        {
          "indexed": false,
          "internalType": "address",
          "name": "tokenOut",
          "type": "address"
        },
        {
          "indexed": false,
          "internalType": "uint256",
          "name": "amountIn",
          "type": "uint256"
        },
        {
          "indexed": false,
          "internalType": "uint256",
          "name": "sourceChain",
          "type": "uint256"
        },
        {
          "indexed": false,
          "internalType": "uint256",
          "name": "destChain",
          "type": "uint256"
        }
      ],
      "name": "IntentCreated",
      "type": "event"
    },
    {
      "anonymous": false,
      "inputs": [
        {
          "indexed": true,
          "internalType": "bytes32",
          "name": "id",
          "type": "bytes32"
        },
        {
          "indexed": false,
          "internalType": "string",
          "name": "reason",
          "type": "string"
        }
      ],
      "name": "IntentFailed",
      "type": "event"
    },
    {
      "anonymous": false,
      "inputs": [
        {
          "indexed": true,
          "internalType": "bytes32",
          "name": "id",
          "type": "bytes32"
        },
        {
          "indexed": false,
          "internalType": "uint256",
          "name": "fragmentCount",
          "type": "uint256"
        }
      ],
      "name": "IntentFragmented",
      "type": "event"
    },
    {
      "anonymous": false,
      "inputs": [
        {
          "indexed": true,
          "internalType": "bytes32",
          "name": "id",
          "type": "bytes32"
        },
        {
          "indexed": false,
          "internalType": "bytes32",
          "name": "routeId",
          "type": "bytes32"
        }
      ],
      "name": "IntentRouted",
      "type": "event"
    },
    {
      "anonymous": false,
      "inputs": [
        {
          "indexed": true,
          "internalType": "bytes32",
          "name": "id",
          "type": "bytes32"
        },
        {
          "indexed": false,
          "internalType": "uint256",
          "name": "amountOut",
          "type": "uint256"
        },
        {
          "indexed": false,
          "internalType": "uint256",
          "name": "fee",
          "type": "uint256"
        }
      ],
      "name": "IntentSettled",
      "type": "event"
    },
    {
      "anonymous": false,
      "inputs": [
        {
          "indexed": false,
          "internalType": "address",
          "name": "account",
          "type": "address"
        }
      ],
      "name": "Paused",
      "type": "event"
    },
    {
      "anonymous": false,
      "inputs": [
        {
          "indexed": true,
          "internalType": "bytes32",
          "name": "role",
          "type": "bytes32"
        },
        {
          "indexed": true,
          "internalType": "bytes32",
          "name": "previousAdminRole",
          "type": "bytes32"
        },
        {
          "indexed": true,
          "internalType": "bytes32",
          "name": "newAdminRole",
          "type": "bytes32"
        }
      ],
      "name": "RoleAdminChanged",
      "type": "event"
    },
    {
      "anonymous": false,
      "inputs": [
        {
          "indexed": true,
          "internalType": "bytes32",
          "name": "role",
          "type": "bytes32"
        },
        {
          "indexed": true,
          "internalType": "address",
          "name": "account",
          "type": "address"
        },
        {
          "indexed": true,
          "internalType": "address",
          "name": "sender",
          "type": "address"
        }
      ],
      "name": "RoleGranted",
      "type": "event"
    },
    {
      "anonymous": false,
      "inputs": [
        {
          "indexed": true,
          "internalType": "bytes32",
          "name": "role",
          "type": "bytes32"
        },
        {
          "indexed": true,
          "internalType": "address",
          "name": "account",
          "type": "address"
        },
        {
          "indexed": true,
          "internalType": "address",
          "name": "sender",
          "type": "address"
        }
      ],
      "name": "RoleRevoked",
      "type": "event"
    },
    {
      "anonymous": false,
      "inputs": [
        {
          "indexed": false,
          "internalType": "address",
          "name": "account",
          "type": "address"
        }
      ],
      "name": "Unpaused",
      "type": "event"
    },
    {
      "inputs": [],
      "name": "DEFAULT_ADMIN_ROLE",
      "outputs": [
        {
          "internalType": "bytes32",
          "name": "",
          "type": "bytes32"
        }
      ],
      "stateMutability": "view",
      "type": "function"
    },
    {
      "inputs": [],
      "name": "GOVERNANCE_ROLE",
      "outputs": [
        {
          "internalType": "bytes32",
          "name": "",
          "type": "bytes32"
        }
      ],
      "stateMutability": "view",
      "type": "function"
    },
    {
      "inputs": [],
      "name": "ROUTER_ROLE",
      "outputs": [
        {
          "internalType": "bytes32",
          "name": "",
          "type": "bytes32"
        }
      ],
      "stateMutability": "view",
      "type": "function"
    },
    {
      "inputs": [
        {
          "internalType": "address",
          "name": "tokenIn",
          "type": "address"
        },
        {
          "internalType": "address",
          "name": "tokenOut",
          "type": "address"
        },
        {
          "internalType": "uint256",
          "name": "amountIn",
          "type": "uint256"
        },
        {
          "internalType": "uint256",
          "name": "minAmountOut",
          "type": "uint256"
        },
        {
          "internalType": "uint256",
          "name": "sourceChain",
          "type": "uint256"
        },
        {
          "internalType": "uint256",
          "name": "destChain",
          "type": "uint256"
        },
        {
          "internalType": "enum IntentRouter.PrivacyLevel",
          "name": "privacy",
          "type": "uint8"
        },
        {
          "internalType": "bool",
          "name": "fragmented",
          "type": "bool"
        }
      ],
      "name": "createIntent",
      "outputs": [
        {
          "internalType": "bytes32",
          "name": "",
          "type": "bytes32"
        }
      ],
      "stateMutability": "nonpayable",
      "type": "function"
    },
    {
      "inputs": [
        {
          "internalType": "bytes32",
          "name": "intentId",
          "type": "bytes32"
        },
        {
          "internalType": "string",
          "name": "reason",
          "type": "string"
        }
      ],
      "name": "failIntent",
      "outputs": [],
      "stateMutability": "nonpayable",
      "type": "function"
    },
    {
      "inputs": [
        {
          "internalType": "bytes32",
          "name": "intentId",
          "type": "bytes32"
        },
        {
          "internalType": "bytes32[]",
          "name": "fragmentIds",
          "type": "bytes32[]"
        }
      ],
      "name": "fragmentIntent",
      "outputs": [],
      "stateMutability": "nonpayable",
      "type": "function"
    },
    {
      "inputs": [
        {
          "internalType": "bytes32",
          "name": "id",
          "type": "bytes32"
        }
      ],
      "name": "getIntent",
      "outputs": [
        {
          "components": [
            {
              "internalType": "bytes32",
              "name": "id",
              "type": "bytes32"
            },
            {
              "internalType": "address",
              "name": "user",
              "type": "address"
            },
            {
              "internalType": "address",
              "name": "tokenIn",
              "type": "address"
            },
            {
              "internalType": "address",
              "name": "tokenOut",
              "type": "address"
            },
            {
              "internalType": "uint256",
              "name": "amountIn",
              "type": "uint256"
            },
            {
              "internalType": "uint256",
              "name": "minAmountOut",
              "type": "uint256"
            },
            {
              "internalType": "uint256",
              "name": "sourceChain",
              "type": "uint256"
            },
            {
              "internalType": "uint256",
              "name": "destChain",
              "type": "uint256"
            },
            {
              "internalType": "enum IntentRouter.PrivacyLevel",
              "name": "privacy",
              "type": "uint8"
            },
            {
              "internalType": "bool",
              "name": "fragmented",
              "type": "bool"
            },
            {
              "internalType": "enum IntentRouter.IntentState",
              "name": "state",
              "type": "uint8"
            },
            {
              "internalType": "uint256",
              "name": "timestamp",
              "type": "uint256"
            },
            {
              "internalType": "bytes32",
              "name": "routeId",
              "type": "bytes32"
            }
          ],
          "internalType": "struct IntentRouter.Intent",
          "name": "",
          "type": "tuple"
        }
      ],
      "stateMutability": "view",
      "type": "function"
    },
    {
      "inputs": [
        {
          "internalType": "bytes32",
          "name": "intentId",
          "type": "bytes32"
        }
      ],
      "name": "getIntentFragments",
      "outputs": [
        {
          "internalType": "bytes32[]",
          "name": "",
          "type": "bytes32[]"
        }
      ],
      "stateMutability": "view",
      "type": "function"
    },
    {
      "inputs": [
        {
          "internalType": "bytes32",
          "name": "role",
          "type": "bytes32"
        }
      ],
      "name": "getRoleAdmin",
      "outputs": [
        {
          "internalType": "bytes32",
          "name": "",
          "type": "bytes32"
        }
      ],
      "stateMutability": "view",
      "type": "function"
    },
    {
      "inputs": [
        {
          "internalType": "address",
          "name": "user",
          "type": "address"
        }
      ],
      "name": "getUserIntents",
      "outputs": [
        {
          "internalType": "bytes32[]",
          "name": "",
          "type": "bytes32[]"
        }
      ],
      "stateMutability": "view",
      "type": "function"
    },
    {
      "inputs": [
        {
          "internalType": "bytes32",
          "name": "role",
          "type": "bytes32"
        },
        {
          "internalType": "address",
          "name": "account",
          "type": "address"
        }
      ],
      "name": "grantRole",
      "outputs": [],
      "stateMutability": "nonpayable",
      "type": "function"
    },
    {
      "inputs": [
        {
          "internalType": "bytes32",
          "name": "role",
          "type": "bytes32"
        },
        {
          "internalType": "address",
          "name": "account",
          "type": "address"
        }
      ],
      "name": "hasRole",
      "outputs": [
        {
          "internalType": "bool",
          "name": "",
          "type": "bool"
        }
      ],
      "stateMutability": "view",
      "type": "function"
    },
    {
      "inputs": [
        {
          "internalType": "bytes32",
          "name": "",
          "type": "bytes32"
        },
        {
          "internalType": "uint256",
          "name": "",
          "type": "uint256"
        }
      ],
      "name": "intentFragments",
      "outputs": [
        {
          "internalType": "bytes32",
          "name": "",
          "type": "bytes32"
        }
      ],
      "stateMutability": "view",
      "type": "function"
    },
    {
      "inputs": [
        {
          "internalType": "bytes32",
          "name": "",
          "type": "bytes32"
        }
      ],
      "name": "intents",
      "outputs": [
        {
          "internalType": "bytes32",
          "name": "id",
          "type": "bytes32"
        },
        {
          "internalType": "address",
          "name": "user",
          "type": "address"
        },
        {
          "internalType": "address",
          "name": "tokenIn",
          "type": "address"
        },
        {
          "internalType": "address",
          "name": "tokenOut",
          "type": "address"
        },
        {
          "internalType": "uint256",
          "name": "amountIn",
          "type": "uint256"
        },
        {
          "internalType": "uint256",
          "name": "minAmountOut",
          "type": "uint256"
        },
        {
          "internalType": "uint256",
          "name": "sourceChain",
          "type": "uint256"
        },
        {
          "internalType": "uint256",
          "name": "destChain",
          "type": "uint256"
        },
        {
          "internalType": "enum IntentRouter.PrivacyLevel",
          "name": "privacy",
          "type": "uint8"
        },
        {
          "internalType": "bool",
          "name": "fragmented",
          "type": "bool"
        },
        {
          "internalType": "enum IntentRouter.IntentState",
          "name": "state",
          "type": "uint8"
        },
        {
          "internalType": "uint256",
          "name": "timestamp",
          "type": "uint256"
        },
        {
          "internalType": "bytes32",
          "name": "routeId",
          "type": "bytes32"
        }
      ],
      "stateMutability": "view",
      "type": "function"
    },
    {
      "inputs": [],
      "name": "pause",
      "outputs": [],
      "stateMutability": "nonpayable",
      "type": "function"
    },
    {
      "inputs": [],
      "name": "paused",
      "outputs": [
        {
          "internalType": "bool",
          "name": "",
          "type": "bool"
        }
      ],
      "stateMutability": "view",
      "type": "function"
    },
    {
      "inputs": [
        {
          "internalType": "bytes32",
          "name": "role",
          "type": "bytes32"
        },
        {
          "internalType": "address",
          "name": "callerConfirmation",
          "type": "address"
        }
      ],
      "name": "renounceRole",
      "outputs": [],
      "stateMutability": "nonpayable",
      "type": "function"
    },
    {
      "inputs": [
        {
          "internalType": "bytes32",
          "name": "role",
          "type": "bytes32"
        },
        {
          "internalType": "address",
          "name": "account",
          "type": "address"
        }
      ],
      "name": "revokeRole",
      "outputs": [],
      "stateMutability": "nonpayable",
      "type": "function"
    },
    {
      "inputs": [
        {
          "internalType": "bytes32",
          "name": "intentId",
          "type": "bytes32"
        },
        {
          "internalType": "bytes32",
          "name": "routeId",
          "type": "bytes32"
        }
      ],
      "name": "routeIntent",
      "outputs": [],
      "stateMutability": "nonpayable",
      "type": "function"
    },
    {
      "inputs": [
        {
          "internalType": "bytes32",
          "name": "intentId",
          "type": "bytes32"
        },
        {
          "internalType": "uint256",
          "name": "amountOut",
          "type": "uint256"
        },
        {
          "internalType": "uint256",
          "name": "fee",
          "type": "uint256"
        }
      ],
      "name": "settleIntent",
      "outputs": [],
      "stateMutability": "nonpayable",
      "type": "function"
    },
    {
      "inputs": [
        {
          "internalType": "bytes4",
          "name": "interfaceId",
          "type": "bytes4"
        }
      ],
      "name": "supportsInterface",
      "outputs": [
        {
          "internalType": "bool",
          "name": "",
          "type": "bool"
        }
      ],
      "stateMutability": "view",
      "type": "function"
    },
    {
      "inputs": [],
      "name": "unpause",
      "outputs": [],
      "stateMutability": "nonpayable",
      "type": "function"
    },
    {
      "inputs": [
        {
          "internalType": "address",
          "name": "",
          "type": "address"
        },
        {
          "internalType": "uint256",
          "name": "",
          "type": "uint256"
        }
      ],
      "name": "userIntents",
      "outputs": [
        {
          "internalType": "bytes32",
          "name": "",
          "type": "bytes32"
        }
      ],
      "stateMutability": "view",
      "type": "function"
    }
  ],
  "bytecode": "0x608060405234801561000f575f80fd5b5060017f9b779b17422d0df92223018b32b4d1fa46e071723d6817e2486d003becc55f005561003e5f3361009a565b506100697f71840dc4906352362b0cdaf79870196c8e42acafade72d5d5a6d59291253ceb13361009a565b506100947f7a05a596cb0ce7fdea8a1e1ec73be300bdb35097c944ce1897202f7a13122eb23361009a565b50610143565b5f828152602081815260408083206001600160a01b038516845290915281205460ff1661013a575f838152602081815260408083206001600160a01b03861684529091529020805460ff191660011790556100f23390565b6001600160a01b0316826001600160a01b0316847f2f8788117e7eff1d82e926ec794901d17c78024a50270940304540a733656f0d60405160405180910390a450600161013d565b505f5b92915050565b611871806101505f395ff3fe608060405234801561000f575f80fd5b5060043610610148575f3560e01c80638456cb59116100bf578063c018b98611610079578063c018b98614610339578063d1749f781461034c578063d547741f1461035f578063f13c46aa14610372578063f36c8f5c14610392578063fa3209b2146103b9575f80fd5b80638456cb591461024c57806389c9c3ae146102545780639021578a146102675780639071247d1461030c57806391d148541461031f578063a217fddf14610332575f80fd5b806334c2e85d1161011057806334c2e85d146101e057806336568abe146101f35780633f4ba83a146102065780635c975abb1461020e5780636454d516146102195780636a32bea71461022c575f80fd5b806301ffc9a71461014c57806302f93bb214610174578063248a9ca3146101895780632f2ff15d146101b957806330d643b5146101cc575b5f80fd5b61015f61015a366004611343565b6103cc565b60405190151581526020015b60405180910390f35b610187610182366004611371565b610402565b005b6101ab6101973660046113eb565b5f9081526020819052604090206001015490565b60405190815260200161016b565b6101876101c736600461141d565b610539565b6101ab5f8051602061181c83398151915281565b6101876101ee366004611447565b610563565b61018761020136600461141d565b61070e565b610187610746565b60015460ff1661015f565b6101ab610227366004611470565b61077b565b61023f61023a3660046113eb565b6107a6565b60405161016b9190611490565b610187610805565b6101ab6102623660046114d2565b610837565b6102f36102753660046113eb565b600360208190525f918252604090912080546001820154600283015493830154600484015460058501546006860154600787015460088801546009890154600a9099015497996001600160a01b0397881699908816989790961696949593949293919260ff808316936101008404821693620100009004909116918d565b60405161016b9d9c9b9a99989796959493929190611532565b61018761031a3660046115b7565b610850565b61015f61032d36600461141d565b610924565b6101ab5f81565b610187610347366004611470565b61094c565b6101ab61035a36600461161d565b610a35565b61018761036d36600461141d565b610d84565b6103856103803660046113eb565b610da8565b60405161016b91906116a0565b6101ab7f71840dc4906352362b0cdaf79870196c8e42acafade72d5d5a6d59291253ceb181565b61023f6103c7366004611781565b610f1d565b5f6001600160e01b03198216637965db0b60e01b14806103fc57506301ffc9a760e01b6001600160e01b03198316145b92915050565b5f8051602061181c83398151915261041981610f84565b5f84815260036020526040812090600882015462010000900460ff166004811115610446576104466114fa565b1461046c57604051631e9fbdb560e01b8152600481018690526024015b60405180910390fd5b6008810154610100900460ff1661049657604051634d48627f60e11b815260040160405180910390fd5b60088101805462ff00001916620100001790555f5b838110156104fb575f8681526005602052604090208585838181106104d2576104d261179a565b8354600180820186555f95865260209586902092909502939093013592019190915550016104ab565b5060405183815285907f863fc64c8a9f35f4cb3ca1c782a11679a9f7074f40afe4e29f465f7ab3f2f446906020015b60405180910390a25050505050565b5f8281526020819052604090206001015461055381610f84565b61055d8383610f8e565b50505050565b5f8051602061181c83398151915261057a81610f84565b61058261101d565b5f8481526003602052604090206002600882015462010000900460ff1660048111156105b0576105b06114fa565b146105d157604051631e9fbdb560e01b815260048101869052602401610463565b8060050154841015610665576008810180546004919062ff0000191662010000830217905550847f185f7925e0ee1fcabac5a12db6e9c0876905cfbee09f4a77113dd06943b6d5fe604051610657906020808252601b908201527f536c69707061676520746f6c6572616e63652065786365656465640000000000604082015260600190565b60405180910390a2506106e5565b60088101805462ff00001916620300001790555f61068384866117c2565b600183015460038401549192506106a7916001600160a01b0390811691168361104b565b604080518681526020810186905287917f986786088f88aa5925dfe62e085ef07cd51f71e791e0692b9614b10e0335d097910160405180910390a250505b61055d60017f9b779b17422d0df92223018b32b4d1fa46e071723d6817e2486d003becc55f0055565b6001600160a01b03811633146107375760405163334bd91960e11b815260040160405180910390fd5b6107418282611080565b505050565b7f71840dc4906352362b0cdaf79870196c8e42acafade72d5d5a6d59291253ceb161077081610f84565b6107786110e9565b50565b6005602052815f5260405f208181548110610794575f80fd5b905f5260205f20015f91509150505481565b5f818152600560209081526040918290208054835181840281018401909452808452606093928301828280156107f957602002820191905f5260205f20905b8154815260200190600101908083116107e5575b50505050509050919050565b7f71840dc4906352362b0cdaf79870196c8e42acafade72d5d5a6d59291253ceb161082f81610f84565b61077861113b565b6004602052815f5260405f208181548110610794575f80fd5b5f8051602061181c83398151915261086781610f84565b5f84815260036020819052604090912090600882015462010000900460ff166004811115610897576108976114fa565b036108b857604051631e9fbdb560e01b815260048101869052602401610463565b60088101805462ff00001916620400001790556001810154600482015460028301546108f2926001600160a01b039182169291169061104b565b847f185f7925e0ee1fcabac5a12db6e9c0876905cfbee09f4a77113dd06943b6d5fe858560405161052a9291906117d5565b5f918252602082815260408084206001600160a01b0393909316845291905290205460ff1690565b5f8051602061181c83398151915261096381610f84565b5f8381526003602052604090206001600882015462010000900460ff166004811115610991576109916114fa565b141580156109bd57505f600882015462010000900460ff1660048111156109ba576109ba6114fa565b14155b156109de57604051631e9fbdb560e01b815260048101859052602401610463565b6008810180546202000062ff000019909116179055600a810183905560405183815284907fce0282c8cea1521782528dfd35c82bb15541d62eb5c6a1191cfa680e3dbcb5889060200160405180910390a250505050565b5f610a3e611176565b6001600160a01b0389161580610a5b57506001600160a01b038816155b15610a7957604051634d48627f60e11b815260040160405180910390fd5b865f03610a9957604051632ca2f52b60e11b815260040160405180910390fd5b841580610aa4575083155b15610ac25760405163057f3fa760e51b815260040160405180910390fd5b610ad76001600160a01b038a1633308a61119c565b6002546040516bffffffffffffffffffffffff1933606090811b821660208401528c901b1660348201526048810189905242606882015260888101919091525f9060a80160408051601f198184030181529190528051602090910120600280549192505f610b4483611803565b9190505550604051806101a00160405280828152602001336001600160a01b031681526020018b6001600160a01b031681526020018a6001600160a01b03168152602001898152602001888152602001878152602001868152602001856003811115610bb257610bb26114fa565b815284151560208201526040015f8152426020808301919091525f60409283018190528481526003808352908390208451815591840151600180840180546001600160a01b03199081166001600160a01b0394851617909155948601516002850180548716918416919091179055606086015184840180549096169216919091179093556080840151600483015560a0840151600583015560c0840151600683015560e0840151600783015561010084015160088301805493949193909260ff1990911691908490811115610c8957610c896114fa565b02179055506101208201516008820180549115156101000261ff00198316811782556101408501519262ff00001990911662ffff00199091161762010000836004811115610cd957610cd96114fa565b0217905550610160820151600982015561018090910151600a90910155335f81815260046020908152604080832080546001810182559084529282902090920184905581516001600160a01b03808f1682528d16918101919091529081018a9052606081018890526080810187905282907f045dca127d9c61a4be780aa01e2aa21005add63893890412d4b6d2aa77c399279060a00160405180910390a39998505050505050505050565b5f82815260208190526040902060010154610d9e81610f84565b61055d8383611080565b604080516101a0810182525f80825260208201819052918101829052606081018290526080810182905260a0810182905260c0810182905260e0810182905261010081018290526101208101829052610140810182905261016081018290526101808101919091525f8281526003602081815260409283902083516101a0810185528154815260018201546001600160a01b0390811693820193909352600282015483169481019490945280830154909116606084015260048101546080840152600581015460a0840152600681015460c0840152600781015460e08401526008810154909161010084019160ff1690811115610ea757610ea76114fa565b6003811115610eb857610eb86114fa565b8152600882015460ff610100820481161515602084015260409092019162010000909104166004811115610eee57610eee6114fa565b6004811115610eff57610eff6114fa565b815260098201546020820152600a9091015460409091015292915050565b6001600160a01b0381165f908152600460209081526040918290208054835181840281018401909452808452606093928301828280156107f957602002820191905f5260205f20908154815260200190600101908083116107e55750505050509050919050565b61077881336111d2565b5f610f998383610924565b611016575f838152602081815260408083206001600160a01b03861684529091529020805460ff19166001179055610fce3390565b6001600160a01b0316826001600160a01b0316847f2f8788117e7eff1d82e926ec794901d17c78024a50270940304540a733656f0d60405160405180910390a45060016103fc565b505f6103fc565b61102561120f565b60027f9b779b17422d0df92223018b32b4d1fa46e071723d6817e2486d003becc55f0055565b6110588383836001611251565b61074157604051635274afe760e01b81526001600160a01b0384166004820152602401610463565b5f61108b8383610924565b15611016575f838152602081815260408083206001600160a01b0386168085529252808320805460ff1916905551339286917ff6391f5c32d9c69d2a47ea670b442974b53935d1edc7fd64eb21e047a839171b9190a45060016103fc565b6110f16112b3565b6001805460ff191690557f5db9ee0a495bf2e6ff9c91a7834c1ba4fdd244a5e8aa4e537bd38aeae4b073aa335b6040516001600160a01b03909116815260200160405180910390a1565b611143611176565b6001805460ff1916811790557f62e78cea01bee320cd4e420270b5ea74000d11b0c9f74754ebdbfc544b05a2583361111e565b60015460ff161561119a5760405163d93c066560e01b815260040160405180910390fd5b565b6111aa8484848460016112d6565b61055d57604051635274afe760e01b81526001600160a01b0385166004820152602401610463565b6111dc8282610924565b61120b5760405163e2517d3f60e01b81526001600160a01b038216600482015260248101839052604401610463565b5050565b7f9b779b17422d0df92223018b32b4d1fa46e071723d6817e2486d003becc55f005460020361119a57604051633ee5aeb560e01b815260040160405180910390fd5b60405163a9059cbb60e01b5f8181526001600160a01b038616600452602485905291602083604481808b5af1925060015f511483166112a757838315161561129b573d5f823e3d81fd5b5f873b113d1516831692505b60405250949350505050565b60015460ff1661119a57604051638dfc202b60e01b815260040160405180910390fd5b6040516323b872dd60e01b5f8181526001600160a01b038781166004528616602452604485905291602083606481808c5af1925060015f51148316611332578383151615611326573d5f823e3d81fd5b5f883b113d1516831692505b604052505f60605295945050505050565b5f60208284031215611353575f80fd5b81356001600160e01b03198116811461136a575f80fd5b9392505050565b5f805f60408486031215611383575f80fd5b83359250602084013567ffffffffffffffff8111156113a0575f80fd5b8401601f810186136113b0575f80fd5b803567ffffffffffffffff8111156113c6575f80fd5b8660208260051b84010111156113da575f80fd5b939660209190910195509293505050565b5f602082840312156113fb575f80fd5b5035919050565b80356001600160a01b0381168114611418575f80fd5b919050565b5f806040838503121561142e575f80fd5b8235915061143e60208401611402565b90509250929050565b5f805f60608486031215611459575f80fd5b505081359360208301359350604090920135919050565b5f8060408385031215611481575f80fd5b50508035926020909101359150565b602080825282518282018190525f918401906040840190835b818110156114c75783518352602093840193909201916001016114a9565b509095945050505050565b5f80604083850312156114e3575f80fd5b6114ec83611402565b946020939093013593505050565b634e487b7160e01b5f52602160045260245ffd5b6004811061151e5761151e6114fa565b9052565b6005811061151e5761151e6114fa565b8d81526001600160a01b038d811660208301528c811660408301528b166060820152608081018a905260a0810189905260c0810188905260e081018790526101a0810161158361010083018861150e565b85151561012083015261159a610140830186611522565b61016082019390935261018001529b9a5050505050505050505050565b5f805f604084860312156115c9575f80fd5b83359250602084013567ffffffffffffffff8111156115e6575f80fd5b8401601f810186136115f6575f80fd5b803567ffffffffffffffff81111561160c575f80fd5b8660208284010111156113da575f80fd5b5f805f805f805f80610100898b031215611635575f80fd5b61163e89611402565b975061164c60208a01611402565b965060408901359550606089013594506080890135935060a0890135925060c08901356004811061167b575f80fd5b915060e0890135801515811461168f575f80fd5b809150509295985092959890939650565b815181526020808301516101a08301916116c4908401826001600160a01b03169052565b5060408301516116df60408401826001600160a01b03169052565b5060608301516116fa60608401826001600160a01b03169052565b506080830151608083015260a083015160a083015260c083015160c083015260e083015160e083015261010083015161173761010084018261150e565b5061012083015161174d61012084018215159052565b50610140830151611762610140840182611522565b5061016083015161016083015261018083015161018083015292915050565b5f60208284031215611791575f80fd5b61136a82611402565b634e487b7160e01b5f52603260045260245ffd5b634e487b7160e01b5f52601160045260245ffd5b818103818111156103fc576103fc6117ae565b60208152816020820152818360408301375f818301604090810191909152601f909201601f19160101919050565b5f60018201611814576118146117ae565b506001019056fe7a05a596cb0ce7fdea8a1e1ec73be300bdb35097c944ce1897202f7a13122eb2a26469706673582212209e7e330c2c1733d131b4a29870ab8aaaa20727b73753ef8d8a7d1ec634e751a664736f6c634300081a0033",
  "linkReferences": {},
  "deployedLinkReferences": {}
}