{
  "_format": "hh-sol-artifact-1",
  "contractName": "TreasuryFeeCollector",
  "sourceName": "contracts/TreasuryFeeCollector.sol",
  "abi": [
    {
      "inputs": [
        {
          "internalType": "address",
          "name": "_treasuryWallet",
          "type": "address"
        }
      ],
      "stateMutability": "nonpayable",
      "type": "constructor"
    },
    {
      "inputs": [],
      "name": "AccessControlBadConfirmation",
      "type": "error"
    },
    {
      "inputs": [
        {
          "internalType": "address",
          "name": "account",
          "type": "address"
        },
        {
          "internalType": "bytes32",
          "name": "neededRole",
          "type": "bytes32"
        }
      ],
      "name": "AccessControlUnauthorizedAccount",
      "type": "error"
    },
    {
      "inputs": [],
      "name": "FeeTooHigh",
      "type": "error"
    },
    {
      "inputs": [],
      "name": "InsufficientFees",
      "type": "error"
    },
    {
      "inputs": [],
      "name": "InvalidFeeConfig",
      "type": "error"
    },
    {
      "inputs": [],
      "name": "ReentrancyGuardReentrantCall",
      "type": "error"
    },
    {
      "inputs": [
        {
          "internalType": "address",
          "name": "token",
          "type": "address"
        }
      ],
      "name": "SafeERC20FailedOperation",
      "type": "error"
    },
    {
      "inputs": [],
      "name": "TreasuryWalletNotSet",
      "type": "error"
    },
    {
      "anonymous": false,
      "inputs": [
        {
          "indexed": true,
          "internalType": "bytes32",
          "name": "routeId",
          "type": "bytes32"
        },
        {
          "indexed": true,
          "internalType": "address",
          "name": "token",
          "type": "address"
        },
        {
          "indexed": false,
          "internalType": "uint256",
          "name": "amount",
          "type": "uint256"
        },
        {
          "indexed": false,
          "internalType": "uint256",
          "name": "fee",
          "type": "uint256"
        }
      ],
      "name": "FeeCollected",
      "type": "event"
    },
    {
      "anonymous": false,
      "inputs": [
        {
          "indexed": true,
          "internalType": "uint256",
          "name": "chainId",
          "type": "uint256"
        },
        {
          "indexed": false,
          "internalType": "uint256",
          "name": "protocolFeeBps",
          "type": "uint256"
        }
      ],
      "name": "FeeConfigUpdated",
      "type": "event"
    },
    {
      "anonymous": false,
      "inputs": [
        {
          "indexed": true,
          "internalType": "address",
          "name": "token",
          "type": "address"
        },
        {
          "indexed": false,
          "internalType": "uint256",
          "name": "amount",
          "type": "uint256"
        },
        {
          "indexed": true,
          "internalType": "address",
          "name": "recipient",
          "type": "address"
        }
      ],
      "name": "FeeDistributed",
      "type": "event"
    },
    {
      "anonymous": false,
      "inputs": [
        {
          "indexed": false,
          "internalType": "uint256",
          "name": "minAmount",
          "type": "uint256"
        },
        {
          "indexed": false,
          "internalType": "uint256",
          "name": "maxAmount",
          "type": "uint256"
        },
        {
          "indexed": false,
          "internalType": "uint256",
          "name": "feeBps",
          "type": "uint256"
        }
      ],
      "name": "FeeTierAdded",
      "type": "event"
    },
    {
      "anonymous": false,
      "inputs": [
        {
          "indexed": true,
          "internalType": "bytes32",
          "name": "role",
          "type": "bytes32"
        },
        {
          "indexed": true,
          "internalType": "bytes32",
          "name": "previousAdminRole",
          "type": "bytes32"
        },
        {
          "indexed": true,
          "internalType": "bytes32",
          "name": "newAdminRole",
          "type": "bytes32"
        }
      ],
      "name": "RoleAdminChanged",
      "type": "event"
    },
    {
      "anonymous": false,
      "inputs": [
        {
          "indexed": true,
          "internalType": "bytes32",
          "name": "role",
          "type": "bytes32"
        },
        {
          "indexed": true,
          "internalType": "address",
          "name": "account",
          "type": "address"
        },
        {
          "indexed": true,
          "internalType": "address",
          "name": "sender",
          "type": "address"
        }
      ],
      "name": "RoleGranted",
      "type": "event"
    },
    {
      "anonymous": false,
      "inputs": [
        {
          "indexed": true,
          "internalType": "bytes32",
          "name": "role",
          "type": "bytes32"
        },
        {
          "indexed": true,
          "internalType": "address",
          "name": "account",
          "type": "address"
        },
        {
          "indexed": true,
          "internalType": "address",
          "name": "sender",
          "type": "address"
        }
      ],
      "name": "RoleRevoked",
      "type": "event"
    },
    {
      "anonymous": false,
      "inputs": [
        {
          "indexed": true,
          "internalType": "address",
          "name": "oldWallet",
          "type": "address"
        },
        {
          "indexed": true,
          "internalType": "address",
          "name": "newWallet",
          "type": "address"
        }
      ],
      "name": "TreasuryWalletUpdated",
      "type": "event"
    },
    {
      "inputs": [],
      "name": "BPS_DENOMINATOR",
      "outputs": [
        {
          "internalType": "uint256",
          "name": "",
          "type": "uint256"
        }
      ],
      "stateMutability": "view",
      "type": "function"
    },
    {
      "inputs": [],
      "name": "DEFAULT_ADMIN_ROLE",
      "outputs": [
        {
          "internalType": "bytes32",
          "name": "",
          "type": "bytes32"
        }
      ],
      "stateMutability": "view",
      "type": "function"
    },
    {
      "inputs": [],
      "name": "FEE_MANAGER_ROLE",
      "outputs": [
        {
          "internalType": "bytes32",
          "name": "",
          "type": "bytes32"
        }
      ],
      "stateMutability": "view",
      "type": "function"
    },
    {
      "inputs": [],
      "name": "GOVERNANCE_ROLE",
      "outputs": [
        {
          "internalType": "bytes32",
          "name": "",
          "type": "bytes32"
        }
      ],
      "stateMutability": "view",
      "type": "function"
    },
    {
      "inputs": [],
      "name": "MAX_FEE_BPS",
      "outputs": [
        {
          "internalType": "uint256",
          "name": "",
          "type": "uint256"
        }
      ],
      "stateMutability": "view",
      "type": "function"
    },
    {
      "inputs": [
        {
          "internalType": "uint256",
          "name": "minAmount",
          "type": "uint256"
        },
        {
          "internalType": "uint256",
          "name": "maxAmount",
          "type": "uint256"
        },
        {
          "internalType": "uint256",
          "name": "feeBps",
          "type": "uint256"
        }
      ],
      "name": "addFeeTier",
      "outputs": [],
      "stateMutability": "nonpayable",
      "type": "function"
    },
    {
      "inputs": [
        {
          "internalType": "uint256",
          "name": "",
          "type": "uint256"
        }
      ],
      "name": "chainFeeConfigs",
      "outputs": [
        {
          "internalType": "uint256",
          "name": "protocolFeeBps",
          "type": "uint256"
        },
        {
          "internalType": "uint256",
          "name": "relayerFeeBps",
          "type": "uint256"
        },
        {
          "internalType": "uint256",
          "name": "bridgeFeeBps",
          "type": "uint256"
        },
        {
          "internalType": "uint256",
          "name": "treasuryFeeBps",
          "type": "uint256"
        },
        {
          "internalType": "bool",
          "name": "enabled",
          "type": "bool"
        }
      ],
      "stateMutability": "view",
      "type": "function"
    },
    {
      "inputs": [
        {
          "internalType": "bytes32",
          "name": "routeId",
          "type": "bytes32"
        },
        {
          "internalType": "address",
          "name": "token",
          "type": "address"
        },
        {
          "internalType": "uint256",
          "name": "amount",
          "type": "uint256"
        },
        {
          "internalType": "uint256",
          "name": "chainId",
          "type": "uint256"
        }
      ],
      "name": "collectFee",
      "outputs": [
        {
          "internalType": "uint256",
          "name": "",
          "type": "uint256"
        }
      ],
      "stateMutability": "nonpayable",
      "type": "function"
    },
    {
      "inputs": [
        {
          "internalType": "address",
          "name": "token",
          "type": "address"
        },
        {
          "internalType": "uint256",
          "name": "amount",
          "type": "uint256"
        }
      ],
      "name": "distributeToTreasury",
      "outputs": [],
      "stateMutability": "nonpayable",
      "type": "function"
    },
    {
      "inputs": [
        {
          "internalType": "uint256",
          "name": "",
          "type": "uint256"
        }
      ],
      "name": "feeTiers",
      "outputs": [
        {
          "internalType": "uint256",
          "name": "minAmount",
          "type": "uint256"
        },
        {
          "internalType": "uint256",
          "name": "maxAmount",
          "type": "uint256"
        },
        {
          "internalType": "uint256",
          "name": "feeBps",
          "type": "uint256"
        }
      ],
      "stateMutability": "view",
      "type": "function"
    },
    {
      "inputs": [
        {
          "internalType": "bytes32",
          "name": "routeId",
          "type": "bytes32"
        }
      ],
      "name": "getFee",
      "outputs": [
        {
          "internalType": "uint256",
          "name": "",
          "type": "uint256"
        }
      ],
      "stateMutability": "view",
      "type": "function"
    },
    {
      "inputs": [
        {
          "internalType": "uint256",
          "name": "amount",
          "type": "uint256"
        }
      ],
      "name": "getFeeForAmount",
      "outputs": [
        {
          "internalType": "uint256",
          "name": "",
          "type": "uint256"
        }
      ],
      "stateMutability": "view",
      "type": "function"
    },
    {
      "inputs": [
        {
          "internalType": "bytes32",
          "name": "role",
          "type": "bytes32"
        }
      ],
      "name": "getRoleAdmin",
      "outputs": [
        {
          "internalType": "bytes32",
          "name": "",
          "type": "bytes32"
        }
      ],
      "stateMutability": "view",
      "type": "function"
    },
    {
      "inputs": [
        {
          "internalType": "address",
          "name": "token",
          "type": "address"
        }
      ],
      "name": "getTokenFees",
      "outputs": [
        {
          "components": [
            {
              "internalType": "address",
              "name": "token",
              "type": "address"
            },
            {
              "internalType": "uint256",
              "name": "totalCollected",
              "type": "uint256"
            },
            {
              "internalType": "uint256",
              "name": "distributedToRelayers",
              "type": "uint256"
            },
            {
              "internalType": "uint256",
              "name": "distributedToTreasury",
              "type": "uint256"
            },
            {
              "internalType": "uint256",
              "name": "lastCollection",
              "type": "uint256"
            }
          ],
          "internalType": "struct TreasuryFeeCollector.FeeCollection",
          "name": "",
          "type": "tuple"
        }
      ],
      "stateMutability": "view",
      "type": "function"
    },
    {
      "inputs": [
        {
          "internalType": "bytes32",
          "name": "role",
          "type": "bytes32"
        },
        {
          "internalType": "address",
          "name": "account",
          "type": "address"
        }
      ],
      "name": "grantRole",
      "outputs": [],
      "stateMutability": "nonpayable",
      "type": "function"
    },
    {
      "inputs": [
        {
          "internalType": "bytes32",
          "name": "role",
          "type": "bytes32"
        },
        {
          "internalType": "address",
          "name": "account",
          "type": "address"
        }
      ],
      "name": "hasRole",
      "outputs": [
        {
          "internalType": "bool",
          "name": "",
          "type": "bool"
        }
      ],
      "stateMutability": "view",
      "type": "function"
    },
    {
      "inputs": [],
      "name": "minFeeTier",
      "outputs": [
        {
          "internalType": "uint256",
          "name": "",
          "type": "uint256"
        }
      ],
      "stateMutability": "view",
      "type": "function"
    },
    {
      "inputs": [
        {
          "internalType": "bytes32",
          "name": "role",
          "type": "bytes32"
        },
        {
          "internalType": "address",
          "name": "callerConfirmation",
          "type": "address"
        }
      ],
      "name": "renounceRole",
      "outputs": [],
      "stateMutability": "nonpayable",
      "type": "function"
    },
    {
      "inputs": [
        {
          "internalType": "bytes32",
          "name": "role",
          "type": "bytes32"
        },
        {
          "internalType": "address",
          "name": "account",
          "type": "address"
        }
      ],
      "name": "revokeRole",
      "outputs": [],
      "stateMutability": "nonpayable",
      "type": "function"
    },
    {
      "inputs": [
        {
          "internalType": "bytes32",
          "name": "",
          "type": "bytes32"
        }
      ],
      "name": "routeFees",
      "outputs": [
        {
          "internalType": "uint256",
          "name": "",
          "type": "uint256"
        }
      ],
      "stateMutability": "view",
      "type": "function"
    },
    {
      "inputs": [
        {
          "internalType": "uint256",
          "name": "chainId",
          "type": "uint256"
        },
        {
          "internalType": "uint256",
          "name": "protocolFeeBps",
          "type": "uint256"
        },
        {
          "internalType": "uint256",
          "name": "relayerFeeBps",
          "type": "uint256"
        },
        {
          "internalType": "uint256",
          "name": "bridgeFeeBps",
          "type": "uint256"
        },
        {
          "internalType": "uint256",
          "name": "treasuryFeeBps",
          "type": "uint256"
        },
        {
          "internalType": "bool",
          "name": "enabled",
          "type": "bool"
        }
      ],
      "name": "setFeeConfig",
      "outputs": [],
      "stateMutability": "nonpayable",
      "type": "function"
    },
    {
      "inputs": [
        {
          "internalType": "address",
          "name": "_treasuryWallet",
          "type": "address"
        }
      ],
      "name": "setTreasuryWallet",
      "outputs": [],
      "stateMutability": "nonpayable",
      "type": "function"
    },
    {
      "inputs": [
        {
          "internalType": "bytes4",
          "name": "interfaceId",
          "type": "bytes4"
        }
      ],
      "name": "supportsInterface",
      "outputs": [
        {
          "internalType": "bool",
          "name": "",
          "type": "bool"
        }
      ],
      "stateMutability": "view",
      "type": "function"
    },
    {
      "inputs": [
        {
          "internalType": "address",
          "name": "",
          "type": "address"
        }
      ],
      "name": "tokenFees",
      "outputs": [
        {
          "internalType": "address",
          "name": "token",
          "type": "address"
        },
        {
          "internalType": "uint256",
          "name": "totalCollected",
          "type": "uint256"
        },
        {
          "internalType": "uint256",
          "name": "distributedToRelayers",
          "type": "uint256"
        },
        {
          "internalType": "uint256",
          "name": "distributedToTreasury",
          "type": "uint256"
        },
        {
          "internalType": "uint256",
          "name": "lastCollection",
          "type": "uint256"
        }
      ],
      "stateMutability": "view",
      "type": "function"
    },
    {
      "inputs": [],
      "name": "treasuryWallet",
      "outputs": [
        {
          "internalType": "address",
          "name": "",
          "type": "address"
        }
      ],
      "stateMutability": "view",
      "type": "function"
    }
  ],
  "bytecode": "0x60806040526001600655348015610014575f80fd5b5060405161146a38038061146a833981016040819052610033916102f2565b60017f9b779b17422d0df92223018b32b4d1fa46e071723d6817e2486d003becc55f00556100615f33610249565b5061008c7f71840dc4906352362b0cdaf79870196c8e42acafade72d5d5a6d59291253ceb133610249565b506100b77f6c0757dc3e6b28b2580c03fd9e96c274acf4f99d91fbec9b418fa1d70604ff1c33610249565b50600580546001600160a01b0319166001600160a01b039290921691909117905560408051606080820183525f8083526127106020808501828152601e86880190815260018054808201825581875297517fb10e2d527612073b26eecdfd717e6a320cf44b4afac2b0732d9fcbe2b7fa0cf66003998a028181019290925593517fb10e2d527612073b26eecdfd717e6a320cf44b4afac2b0732d9fcbe2b7fa0cf78083019190915592517fb10e2d527612073b26eecdfd717e6a320cf44b4afac2b0732d9fcbe2b7fa0cf89182015589518089018b52958652620186a08686018181526019888d0190815284548086018655858b529851988c0280880199909955905188860155519682019690965589518089018b52958652620f42408686018181526014888d0190815284548086018655858b529851988c0280880199909955905188860155519682019690965589519788018a529487525f19938701938452600f98870198895280548082018255955294519390950294850192909255905191830191909155915191015561031f565b5f828152602081815260408083206001600160a01b038516845290915281205460ff166102e9575f838152602081815260408083206001600160a01b03861684529091529020805460ff191660011790556102a13390565b6001600160a01b0316826001600160a01b0316847f2f8788117e7eff1d82e926ec794901d17c78024a50270940304540a733656f0d60405160405180910390a45060016102ec565b505f5b92915050565b5f60208284031215610302575f80fd5b81516001600160a01b0381168114610318575f80fd5b9392505050565b61113e8061032c5f395ff3fe608060405234801561000f575f80fd5b506004361061016d575f3560e01c806358a3a1c3116100d9578063a8602fea11610093578063e1a452181161006e578063e1a4521814610469578063e3d2a2e814610472578063e5f3d3a514610485578063f36c8f5c146104a4575f80fd5b8063a8602fea1461043a578063d547741f1461044d578063d55be8c614610460575f80fd5b806358a3a1c31461032c57806365436cd81461033f57806391d1485414610398578063a217fddf146103ab578063a3193fd1146103b2578063a7bb92411461041b575f80fd5b80632f2ff15d1161012a5780632f2ff15d14610246578063309e73191461025957806336568abe1461026c57806339e16d641461027f5780634626402b146102f85780634bc3671114610323575f80fd5b806301ffc9a71461017157806305db2f41146101995780630b0e616f146101ce578063230ed44a146101e1578063248a9ca31461020f57806328814d9814610231575b5f80fd5b61018461017f366004610ee3565b6104b8565b60405190151581526020015b60405180910390f35b6101c07f6c0757dc3e6b28b2580c03fd9e96c274acf4f99d91fbec9b418fa1d70604ff1c81565b604051908152602001610190565b6101c06101dc366004610f2c565b6104ee565b6101f46101ef366004610f64565b61061f565b60408051938452602084019290925290820152606001610190565b6101c061021d366004610f64565b5f9081526020819052604090206001015490565b61024461023f366004610f7b565b610650565b005b610244610254366004610fa3565b61078b565b6101c0610267366004610f64565b6107b5565b61024461027a366004610fa3565b610856565b6102c661028d366004610fcd565b600360208190525f9182526040909120805460018201546002830154938301546004909301546001600160a01b03909216939092909185565b604080516001600160a01b0390961686526020860194909452928401919091526060830152608082015260a001610190565b60055461030b906001600160a01b031681565b6040516001600160a01b039091168152602001610190565b6101c060065481565b61024461033a366004610fe6565b610889565b61035261034d366004610fcd565b6109aa565b604051610190919081516001600160a01b031681526020808301519082015260408083015190820152606080830151908201526080918201519181019190915260a00190565b6101846103a6366004610fa3565b610a38565b6101c05f81565b6103f16103c0366004610f64565b600260208190525f918252604090912080546001820154928201546003830154600490930154919392909160ff1685565b6040805195865260208601949094529284019190915260608301521515608082015260a001610190565b6101c0610429366004610f64565b60046020525f908152604090205481565b610244610448366004610fcd565b610a60565b61024461045b366004610fa3565b610ac9565b6101c06103e881565b6101c061271081565b61024461048036600461100f565b610aed565b6101c0610493366004610f64565b5f9081526004602052604090205490565b6101c05f805160206110e983398151915281565b5f6001600160e01b03198216637965db0b60e01b14806104e857506301ffc9a760e01b6001600160e01b03198316145b92915050565b5f7f6c0757dc3e6b28b2580c03fd9e96c274acf4f99d91fbec9b418fa1d70604ff1c61051981610bf0565b5f838152600260205260408120600481015490919060ff166105435761053e866107b5565b610546565b81545b90505f6127106105568389611078565b610560919061108f565b90505f61056d82896110ae565b90506105846001600160a01b038a1633308b610bfd565b5f8a81526004602090815260408083208590556001600160a01b038c16835260039091528120600181018054919285926105bf9084906110c1565b9091555050426004820155604080518a8152602081018590526001600160a01b038c16918d917f1b6f7883241ce4ba840674c9429561c3eb1d8c2d8bf8ece0c96f903359d8526b910160405180910390a350909998505050505050505050565b6001818154811061062e575f80fd5b5f91825260209091206003909102018054600182015460029092015490925083565b5f805160206110e983398151915261066781610bf0565b61066f610c38565b6005546001600160a01b031661069857604051633eb22dbb60e01b815260040160405180910390fd5b6001600160a01b0383165f90815260036020819052604090912090810154600182015484916106c6916110ae565b10156106e557604051638d53e55360e01b815260040160405180910390fd5b82816003015f8282546106f891906110c1565b9091555050600554610717906001600160a01b03868116911685610c66565b6005546040518481526001600160a01b03918216918616907fbd21881e1c82b04af0c4a1f3dc94ab60f4db9ee1f256ac6a8942f1ca5c45a4e89060200160405180910390a35061078660017f9b779b17422d0df92223018b32b4d1fa46e071723d6817e2486d003becc55f0055565b505050565b5f828152602081905260409020600101546107a581610bf0565b6107af8383610c9b565b50505050565b5f805b60015481101561084d57600181815481106107d5576107d56110d4565b905f5260205f2090600302015f01548310158015610815575060018181548110610801576108016110d4565b905f5260205f209060030201600101548311155b15610845576001818154811061082d5761082d6110d4565b905f5260205f20906003020160020154915050919050565b6001016107b8565b50601e92915050565b6001600160a01b038116331461087f5760405163334bd91960e11b815260040160405180910390fd5b6107868282610d2a565b5f805160206110e98339815191526108a081610bf0565b6103e88211156108c35760405163cd4e616760e01b815260040160405180910390fd5b604080516060808201835286825260208083018781528385018781526001805480820182555f9190915294517fb10e2d527612073b26eecdfd717e6a320cf44b4afac2b0732d9fcbe2b7fa0cf660039096029586015590517fb10e2d527612073b26eecdfd717e6a320cf44b4afac2b0732d9fcbe2b7fa0cf7850155517fb10e2d527612073b26eecdfd717e6a320cf44b4afac2b0732d9fcbe2b7fa0cf89093019290925582518781529182018690529181018490527f7434b2ba108c2d5390fa8fd1246e89fb9b211e8aae41878e8685cd7f5ff99a80910160405180910390a150505050565b6109e06040518060a001604052805f6001600160a01b031681526020015f81526020015f81526020015f81526020015f81525090565b506001600160a01b039081165f90815260036020818152604092839020835160a08101855281549095168552600181015491850191909152600281015492840192909252810154606083015260040154608082015290565b5f918252602082815260408084206001600160a01b0393909316845291905290205460ff1690565b5f805160206110e9833981519152610a7781610bf0565b600580546001600160a01b038481166001600160a01b0319831681179093556040519116919082907fa982575859d7ad2f390dc12b23f7dab8bbda047f9d0140ac68344b27bf34bfb4905f90a3505050565b5f82815260208190526040902060010154610ae381610bf0565b6107af8383610d2a565b5f805160206110e9833981519152610b0481610bf0565b6103e8861180610b1557506103e885115b80610b2157506103e884115b80610b2d57506103e883115b15610b4b5760405163cd4e616760e01b815260040160405180910390fd5b6040805160a081018252878152602080820188815282840188815260608401888152871515608086019081525f8e8152600280875290889020965187559351600187015591519285019290925590516003840155516004909201805460ff191692151592909217909155905187815288917f1eab951da250f7e001396235b296e29bc73945b6a52fd471dd8f3de3398634be910160405180910390a250505050505050565b610bfa8133610d93565b50565b610c0b848484846001610dd0565b6107af57604051635274afe760e01b81526001600160a01b03851660048201526024015b60405180910390fd5b610c40610e3d565b60027f9b779b17422d0df92223018b32b4d1fa46e071723d6817e2486d003becc55f0055565b610c738383836001610e81565b61078657604051635274afe760e01b81526001600160a01b0384166004820152602401610c2f565b5f610ca68383610a38565b610d23575f838152602081815260408083206001600160a01b03861684529091529020805460ff19166001179055610cdb3390565b6001600160a01b0316826001600160a01b0316847f2f8788117e7eff1d82e926ec794901d17c78024a50270940304540a733656f0d60405160405180910390a45060016104e8565b505f6104e8565b5f610d358383610a38565b15610d23575f838152602081815260408083206001600160a01b0386168085529252808320805460ff1916905551339286917ff6391f5c32d9c69d2a47ea670b442974b53935d1edc7fd64eb21e047a839171b9190a45060016104e8565b610d9d8282610a38565b610dcc5760405163e2517d3f60e01b81526001600160a01b038216600482015260248101839052604401610c2f565b5050565b6040516323b872dd60e01b5f8181526001600160a01b038781166004528616602452604485905291602083606481808c5af1925060015f51148316610e2c578383151615610e20573d5f823e3d81fd5b5f883b113d1516831692505b604052505f60605295945050505050565b7f9b779b17422d0df92223018b32b4d1fa46e071723d6817e2486d003becc55f0054600203610e7f57604051633ee5aeb560e01b815260040160405180910390fd5b565b60405163a9059cbb60e01b5f8181526001600160a01b038616600452602485905291602083604481808b5af1925060015f51148316610ed7578383151615610ecb573d5f823e3d81fd5b5f873b113d1516831692505b60405250949350505050565b5f60208284031215610ef3575f80fd5b81356001600160e01b031981168114610f0a575f80fd5b9392505050565b80356001600160a01b0381168114610f27575f80fd5b919050565b5f805f8060808587031215610f3f575f80fd5b84359350610f4f60208601610f11565b93969395505050506040820135916060013590565b5f60208284031215610f74575f80fd5b5035919050565b5f8060408385031215610f8c575f80fd5b610f9583610f11565b946020939093013593505050565b5f8060408385031215610fb4575f80fd5b82359150610fc460208401610f11565b90509250929050565b5f60208284031215610fdd575f80fd5b610f0a82610f11565b5f805f60608486031215610ff8575f80fd5b505081359360208301359350604090920135919050565b5f805f805f8060c08789031215611024575f80fd5b863595506020870135945060408701359350606087013592506080870135915060a08701358015158114611056575f80fd5b809150509295509295509295565b634e487b7160e01b5f52601160045260245ffd5b80820281158282048414176104e8576104e8611064565b5f826110a957634e487b7160e01b5f52601260045260245ffd5b500490565b818103818111156104e8576104e8611064565b808201808211156104e8576104e8611064565b634e487b7160e01b5f52603260045260245ffdfe71840dc4906352362b0cdaf79870196c8e42acafade72d5d5a6d59291253ceb1a2646970667358221220498b017ef2302274a44e64e40b55d295d05fc5a7e26c4df7ba140ed6d0b34ab964736f6c634300081a0033",
  "linkReferences": {},
  "deployedLinkReferences": {}
}