{
  "_format": "hh-sol-artifact-1",
  "contractName": "Governance",
  "sourceName": "contracts/Governance.sol",
  "abi": [
    {
      "inputs": [],
      "stateMutability": "nonpayable",
      "type": "constructor"
    },
    {
      "inputs": [],
      "name": "AccessControlBadConfirmation",
      "type": "error"
    },
    {
      "inputs": [
        {
          "internalType": "address",
          "name": "account",
          "type": "address"
        },
        {
          "internalType": "bytes32",
          "name": "neededRole",
          "type": "bytes32"
        }
      ],
      "name": "AccessControlUnauthorizedAccount",
      "type": "error"
    },
    {
      "inputs": [
        {
          "internalType": "bytes32",
          "name": "proposalId",
          "type": "bytes32"
        },
        {
          "internalType": "address",
          "name": "voter",
          "type": "address"
        }
      ],
      "name": "AlreadyVoted",
      "type": "error"
    },
    {
      "inputs": [],
      "name": "EnforcedPause",
      "type": "error"
    },
    {
      "inputs": [],
      "name": "ExpectedPause",
      "type": "error"
    },
    {
      "inputs": [],
      "name": "InvalidProposal",
      "type": "error"
    },
    {
      "inputs": [],
      "name": "InvalidShortString",
      "type": "error"
    },
    {
      "inputs": [],
      "name": "NoVotingPower",
      "type": "error"
    },
    {
      "inputs": [],
      "name": "NotProposer",
      "type": "error"
    },
    {
      "inputs": [
        {
          "internalType": "bytes32",
          "name": "id",
          "type": "bytes32"
        }
      ],
      "name": "ProposalAlreadyExecuted",
      "type": "error"
    },
    {
      "inputs": [
        {
          "internalType": "bytes32",
          "name": "id",
          "type": "bytes32"
        }
      ],
      "name": "ProposalNotActive",
      "type": "error"
    },
    {
      "inputs": [
        {
          "internalType": "bytes32",
          "name": "id",
          "type": "bytes32"
        }
      ],
      "name": "ProposalNotFound",
      "type": "error"
    },
    {
      "inputs": [
        {
          "internalType": "bytes32",
          "name": "id",
          "type": "bytes32"
        }
      ],
      "name": "ProposalNotPending",
      "type": "error"
    },
    {
      "inputs": [
        {
          "internalType": "bytes32",
          "name": "id",
          "type": "bytes32"
        }
      ],
      "name": "ProposalNotSucceeded",
      "type": "error"
    },
    {
      "inputs": [],
      "name": "QuorumNotMet",
      "type": "error"
    },
    {
      "inputs": [
        {
          "internalType": "string",
          "name": "str",
          "type": "string"
        }
      ],
      "name": "StringTooLong",
      "type": "error"
    },
    {
      "inputs": [],
      "name": "VotingPeriodEnded",
      "type": "error"
    },
    {
      "anonymous": false,
      "inputs": [
        {
          "indexed": false,
          "internalType": "uint256",
          "name": "newDelay",
          "type": "uint256"
        }
      ],
      "name": "ApprovalDelayUpdated",
      "type": "event"
    },
    {
      "anonymous": false,
      "inputs": [],
      "name": "EIP712DomainChanged",
      "type": "event"
    },
    {
      "anonymous": false,
      "inputs": [
        {
          "indexed": false,
          "internalType": "address",
          "name": "account",
          "type": "address"
        }
      ],
      "name": "Paused",
      "type": "event"
    },
    {
      "anonymous": false,
      "inputs": [
        {
          "indexed": true,
          "internalType": "bytes32",
          "name": "id",
          "type": "bytes32"
        }
      ],
      "name": "ProposalActivated",
      "type": "event"
    },
    {
      "anonymous": false,
      "inputs": [
        {
          "indexed": true,
          "internalType": "bytes32",
          "name": "id",
          "type": "bytes32"
        }
      ],
      "name": "ProposalCancelled",
      "type": "event"
    },
    {
      "anonymous": false,
      "inputs": [
        {
          "indexed": true,
          "internalType": "bytes32",
          "name": "id",
          "type": "bytes32"
        },
        {
          "indexed": true,
          "internalType": "address",
          "name": "proposer",
          "type": "address"
        },
        {
          "indexed": false,
          "internalType": "string",
          "name": "description",
          "type": "string"
        },
        {
          "indexed": false,
          "internalType": "uint256",
          "name": "startBlock",
          "type": "uint256"
        },
        {
          "indexed": false,
          "internalType": "uint256",
          "name": "endBlock",
          "type": "uint256"
        }
      ],
      "name": "ProposalCreated",
      "type": "event"
    },
    {
      "anonymous": false,
      "inputs": [
        {
          "indexed": true,
          "internalType": "bytes32",
          "name": "id",
          "type": "bytes32"
        }
      ],
      "name": "ProposalExecuted",
      "type": "event"
    },
    {
      "anonymous": false,
      "inputs": [
        {
          "indexed": false,
          "internalType": "uint256",
          "name": "newQuorum",
          "type": "uint256"
        }
      ],
      "name": "QuorumUpdated",
      "type": "event"
    },
    {
      "anonymous": false,
      "inputs": [
        {
          "indexed": true,
          "internalType": "bytes32",
          "name": "role",
          "type": "bytes32"
        },
        {
          "indexed": true,
          "internalType": "bytes32",
          "name": "previousAdminRole",
          "type": "bytes32"
        },
        {
          "indexed": true,
          "internalType": "bytes32",
          "name": "newAdminRole",
          "type": "bytes32"
        }
      ],
      "name": "RoleAdminChanged",
      "type": "event"
    },
    {
      "anonymous": false,
      "inputs": [
        {
          "indexed": true,
          "internalType": "bytes32",
          "name": "role",
          "type": "bytes32"
        },
        {
          "indexed": true,
          "internalType": "address",
          "name": "account",
          "type": "address"
        },
        {
          "indexed": true,
          "internalType": "address",
          "name": "sender",
          "type": "address"
        }
      ],
      "name": "RoleGranted",
      "type": "event"
    },
    {
      "anonymous": false,
      "inputs": [
        {
          "indexed": true,
          "internalType": "bytes32",
          "name": "role",
          "type": "bytes32"
        },
        {
          "indexed": true,
          "internalType": "address",
          "name": "account",
          "type": "address"
        },
        {
          "indexed": true,
          "internalType": "address",
          "name": "sender",
          "type": "address"
        }
      ],
      "name": "RoleRevoked",
      "type": "event"
    },
    {
      "anonymous": false,
      "inputs": [
        {
          "indexed": false,
          "internalType": "address",
          "name": "account",
          "type": "address"
        }
      ],
      "name": "Unpaused",
      "type": "event"
    },
    {
      "anonymous": false,
      "inputs": [
        {
          "indexed": true,
          "internalType": "bytes32",
          "name": "proposalId",
          "type": "bytes32"
        },
        {
          "indexed": true,
          "internalType": "address",
          "name": "voter",
          "type": "address"
        },
        {
          "indexed": false,
          "internalType": "bool",
          "name": "support",
          "type": "bool"
        },
        {
          "indexed": false,
          "internalType": "uint256",
          "name": "weight",
          "type": "uint256"
        }
      ],
      "name": "VoteCast",
      "type": "event"
    },
    {
      "anonymous": false,
      "inputs": [
        {
          "indexed": false,
          "internalType": "uint256",
          "name": "newPeriod",
          "type": "uint256"
        }
      ],
      "name": "VotingPeriodUpdated",
      "type": "event"
    },
    {
      "anonymous": false,
      "inputs": [
        {
          "indexed": true,
          "internalType": "address",
          "name": "voter",
          "type": "address"
        },
        {
          "indexed": false,
          "internalType": "uint256",
          "name": "newPower",
          "type": "uint256"
        }
      ],
      "name": "VotingPowerUpdated",
      "type": "event"
    },
    {
      "inputs": [],
      "name": "DEFAULT_ADMIN_ROLE",
      "outputs": [
        {
          "internalType": "bytes32",
          "name": "",
          "type": "bytes32"
        }
      ],
      "stateMutability": "view",
      "type": "function"
    },
    {
      "inputs": [],
      "name": "EXECUTOR_ROLE",
      "outputs": [
        {
          "internalType": "bytes32",
          "name": "",
          "type": "bytes32"
        }
      ],
      "stateMutability": "view",
      "type": "function"
    },
    {
      "inputs": [],
      "name": "GOVERNANCE_ROLE",
      "outputs": [
        {
          "internalType": "bytes32",
          "name": "",
          "type": "bytes32"
        }
      ],
      "stateMutability": "view",
      "type": "function"
    },
    {
      "inputs": [],
      "name": "PROPOSAL_ROLE",
      "outputs": [
        {
          "internalType": "bytes32",
          "name": "",
          "type": "bytes32"
        }
      ],
      "stateMutability": "view",
      "type": "function"
    },
    {
      "inputs": [],
      "name": "PROPOSAL_TYPEHASH",
      "outputs": [
        {
          "internalType": "bytes32",
          "name": "",
          "type": "bytes32"
        }
      ],
      "stateMutability": "view",
      "type": "function"
    },
    {
      "inputs": [
        {
          "internalType": "bytes32",
          "name": "proposalId",
          "type": "bytes32"
        }
      ],
      "name": "activateProposal",
      "outputs": [],
      "stateMutability": "nonpayable",
      "type": "function"
    },
    {
      "inputs": [],
      "name": "approvalDelay",
      "outputs": [
        {
          "internalType": "uint256",
          "name": "",
          "type": "uint256"
        }
      ],
      "stateMutability": "view",
      "type": "function"
    },
    {
      "inputs": [
        {
          "internalType": "bytes32",
          "name": "proposalId",
          "type": "bytes32"
        }
      ],
      "name": "cancelProposal",
      "outputs": [],
      "stateMutability": "nonpayable",
      "type": "function"
    },
    {
      "inputs": [
        {
          "internalType": "bytes32",
          "name": "proposalId",
          "type": "bytes32"
        },
        {
          "internalType": "bool",
          "name": "support",
          "type": "bool"
        },
        {
          "internalType": "string",
          "name": "reason",
          "type": "string"
        }
      ],
      "name": "castVote",
      "outputs": [],
      "stateMutability": "nonpayable",
      "type": "function"
    },
    {
      "inputs": [
        {
          "internalType": "bytes32",
          "name": "targetContract",
          "type": "bytes32"
        },
        {
          "internalType": "bytes",
          "name": "data",
          "type": "bytes"
        },
        {
          "internalType": "uint256",
          "name": "value",
          "type": "uint256"
        },
        {
          "internalType": "string",
          "name": "description",
          "type": "string"
        }
      ],
      "name": "createProposal",
      "outputs": [
        {
          "internalType": "bytes32",
          "name": "",
          "type": "bytes32"
        }
      ],
      "stateMutability": "nonpayable",
      "type": "function"
    },
    {
      "inputs": [],
      "name": "eip712Domain",
      "outputs": [
        {
          "internalType": "bytes1",
          "name": "fields",
          "type": "bytes1"
        },
        {
          "internalType": "string",
          "name": "name",
          "type": "string"
        },
        {
          "internalType": "string",
          "name": "version",
          "type": "string"
        },
        {
          "internalType": "uint256",
          "name": "chainId",
          "type": "uint256"
        },
        {
          "internalType": "address",
          "name": "verifyingContract",
          "type": "address"
        },
        {
          "internalType": "bytes32",
          "name": "salt",
          "type": "bytes32"
        },
        {
          "internalType": "uint256[]",
          "name": "extensions",
          "type": "uint256[]"
        }
      ],
      "stateMutability": "view",
      "type": "function"
    },
    {
      "inputs": [
        {
          "internalType": "bytes32",
          "name": "proposalId",
          "type": "bytes32"
        }
      ],
      "name": "executeProposal",
      "outputs": [],
      "stateMutability": "nonpayable",
      "type": "function"
    },
    {
      "inputs": [
        {
          "internalType": "bytes32",
          "name": "proposalId",
          "type": "bytes32"
        }
      ],
      "name": "finalizeProposal",
      "outputs": [],
      "stateMutability": "nonpayable",
      "type": "function"
    },
    {
      "inputs": [
        {
          "internalType": "bytes32",
          "name": "id",
          "type": "bytes32"
        }
      ],
      "name": "getProposal",
      "outputs": [
        {
          "components": [
            {
              "internalType": "bytes32",
              "name": "id",
              "type": "bytes32"
            },
            {
              "internalType": "address",
              "name": "proposer",
              "type": "address"
            },
            {
              "internalType": "bytes32",
              "name": "targetContract",
              "type": "bytes32"
            },
            {
              "internalType": "bytes",
              "name": "data",
              "type": "bytes"
            },
            {
              "internalType": "uint256",
              "name": "value",
              "type": "uint256"
            },
            {
              "internalType": "uint256",
              "name": "forVotes",
              "type": "uint256"
            },
            {
              "internalType": "uint256",
              "name": "againstVotes",
              "type": "uint256"
            },
            {
              "internalType": "uint256",
              "name": "startBlock",
              "type": "uint256"
            },
            {
              "internalType": "uint256",
              "name": "endBlock",
              "type": "uint256"
            },
            {
              "internalType": "enum Governance.ProposalState",
              "name": "state",
              "type": "uint8"
            },
            {
              "internalType": "bool",
              "name": "executed",
              "type": "bool"
            },
            {
              "internalType": "string",
              "name": "description",
              "type": "string"
            },
            {
              "internalType": "uint256",
              "name": "createdAt",
              "type": "uint256"
            }
          ],
          "internalType": "struct Governance.Proposal",
          "name": "",
          "type": "tuple"
        }
      ],
      "stateMutability": "view",
      "type": "function"
    },
    {
      "inputs": [
        {
          "internalType": "bytes32",
          "name": "role",
          "type": "bytes32"
        }
      ],
      "name": "getRoleAdmin",
      "outputs": [
        {
          "internalType": "bytes32",
          "name": "",
          "type": "bytes32"
        }
      ],
      "stateMutability": "view",
      "type": "function"
    },
    {
      "inputs": [
        {
          "internalType": "bytes32",
          "name": "proposalId",
          "type": "bytes32"
        }
      ],
      "name": "getVotes",
      "outputs": [
        {
          "internalType": "address[]",
          "name": "voters",
          "type": "address[]"
        },
        {
          "internalType": "uint256[]",
          "name": "weights",
          "type": "uint256[]"
        },
        {
          "internalType": "bool[]",
          "name": "inSupport",
          "type": "bool[]"
        }
      ],
      "stateMutability": "view",
      "type": "function"
    },
    {
      "inputs": [
        {
          "internalType": "bytes32",
          "name": "role",
          "type": "bytes32"
        },
        {
          "internalType": "address",
          "name": "account",
          "type": "address"
        }
      ],
      "name": "grantRole",
      "outputs": [],
      "stateMutability": "nonpayable",
      "type": "function"
    },
    {
      "inputs": [
        {
          "internalType": "bytes32",
          "name": "role",
          "type": "bytes32"
        },
        {
          "internalType": "address",
          "name": "account",
          "type": "address"
        }
      ],
      "name": "hasRole",
      "outputs": [
        {
          "internalType": "bool",
          "name": "",
          "type": "bool"
        }
      ],
      "stateMutability": "view",
      "type": "function"
    },
    {
      "inputs": [],
      "name": "pause",
      "outputs": [],
      "stateMutability": "nonpayable",
      "type": "function"
    },
    {
      "inputs": [],
      "name": "paused",
      "outputs": [
        {
          "internalType": "bool",
          "name": "",
          "type": "bool"
        }
      ],
      "stateMutability": "view",
      "type": "function"
    },
    {
      "inputs": [],
      "name": "proposalCount",
      "outputs": [
        {
          "internalType": "uint256",
          "name": "",
          "type": "uint256"
        }
      ],
      "stateMutability": "view",
      "type": "function"
    },
    {
      "inputs": [
        {
          "internalType": "bytes32",
          "name": "",
          "type": "bytes32"
        },
        {
          "internalType": "uint256",
          "name": "",
          "type": "uint256"
        }
      ],
      "name": "proposalVoters",
      "outputs": [
        {
          "internalType": "address",
          "name": "",
          "type": "address"
        }
      ],
      "stateMutability": "view",
      "type": "function"
    },
    {
      "inputs": [
        {
          "internalType": "bytes32",
          "name": "",
          "type": "bytes32"
        }
      ],
      "name": "proposals",
      "outputs": [
        {
          "internalType": "bytes32",
          "name": "id",
          "type": "bytes32"
        },
        {
          "internalType": "address",
          "name": "proposer",
          "type": "address"
        },
        {
          "internalType": "bytes32",
          "name": "targetContract",
          "type": "bytes32"
        },
        {
          "internalType": "bytes",
          "name": "data",
          "type": "bytes"
        },
        {
          "internalType": "uint256",
          "name": "value",
          "type": "uint256"
        },
        {
          "internalType": "uint256",
          "name": "forVotes",
          "type": "uint256"
        },
        {
          "internalType": "uint256",
          "name": "againstVotes",
          "type": "uint256"
        },
        {
          "internalType": "uint256",
          "name": "startBlock",
          "type": "uint256"
        },
        {
          "internalType": "uint256",
          "name": "endBlock",
          "type": "uint256"
        },
        {
          "internalType": "enum Governance.ProposalState",
          "name": "state",
          "type": "uint8"
        },
        {
          "internalType": "bool",
          "name": "executed",
          "type": "bool"
        },
        {
          "internalType": "string",
          "name": "description",
          "type": "string"
        },
        {
          "internalType": "uint256",
          "name": "createdAt",
          "type": "uint256"
        }
      ],
      "stateMutability": "view",
      "type": "function"
    },
    {
      "inputs": [],
      "name": "quorum",
      "outputs": [
        {
          "internalType": "uint256",
          "name": "",
          "type": "uint256"
        }
      ],
      "stateMutability": "view",
      "type": "function"
    },
    {
      "inputs": [
        {
          "internalType": "bytes32",
          "name": "role",
          "type": "bytes32"
        },
        {
          "internalType": "address",
          "name": "callerConfirmation",
          "type": "address"
        }
      ],
      "name": "renounceRole",
      "outputs": [],
      "stateMutability": "nonpayable",
      "type": "function"
    },
    {
      "inputs": [
        {
          "internalType": "bytes32",
          "name": "role",
          "type": "bytes32"
        },
        {
          "internalType": "address",
          "name": "account",
          "type": "address"
        }
      ],
      "name": "revokeRole",
      "outputs": [],
      "stateMutability": "nonpayable",
      "type": "function"
    },
    {
      "inputs": [
        {
          "internalType": "uint256",
          "name": "newDelay",
          "type": "uint256"
        }
      ],
      "name": "setApprovalDelay",
      "outputs": [],
      "stateMutability": "nonpayable",
      "type": "function"
    },
    {
      "inputs": [
        {
          "internalType": "uint256",
          "name": "newQuorum",
          "type": "uint256"
        }
      ],
      "name": "setQuorum",
      "outputs": [],
      "stateMutability": "nonpayable",
      "type": "function"
    },
    {
      "inputs": [
        {
          "internalType": "uint256",
          "name": "newPeriod",
          "type": "uint256"
        }
      ],
      "name": "setVotingPeriod",
      "outputs": [],
      "stateMutability": "nonpayable",
      "type": "function"
    },
    {
      "inputs": [
        {
          "internalType": "address",
          "name": "voter",
          "type": "address"
        },
        {
          "internalType": "uint256",
          "name": "power",
          "type": "uint256"
        }
      ],
      "name": "setVotingPower",
      "outputs": [],
      "stateMutability": "nonpayable",
      "type": "function"
    },
    {
      "inputs": [
        {
          "internalType": "bytes4",
          "name": "interfaceId",
          "type": "bytes4"
        }
      ],
      "name": "supportsInterface",
      "outputs": [
        {
          "internalType": "bool",
          "name": "",
          "type": "bool"
        }
      ],
      "stateMutability": "view",
      "type": "function"
    },
    {
      "inputs": [],
      "name": "unpause",
      "outputs": [],
      "stateMutability": "nonpayable",
      "type": "function"
    },
    {
      "inputs": [
        {
          "internalType": "bytes32",
          "name": "",
          "type": "bytes32"
        },
        {
          "internalType": "address",
          "name": "",
          "type": "address"
        }
      ],
      "name": "votes",
      "outputs": [
        {
          "internalType": "address",
          "name": "voter",
          "type": "address"
        },
        {
          "internalType": "bool",
          "name": "support",
          "type": "bool"
        },
        {
          "internalType": "uint256",
          "name": "weight",
          "type": "uint256"
        },
        {
          "internalType": "string",
          "name": "reason",
          "type": "string"
        }
      ],
      "stateMutability": "view",
      "type": "function"
    },
    {
      "inputs": [],
      "name": "votingPeriod",
      "outputs": [
        {
          "internalType": "uint256",
          "name": "",
          "type": "uint256"
        }
      ],
      "stateMutability": "view",
      "type": "function"
    },
    {
      "inputs": [
        {
          "internalType": "address",
          "name": "",
          "type": "address"
        }
      ],
      "name": "votingPower",
      "outputs": [
        {
          "internalType": "uint256",
          "name": "",
          "type": "uint256"
        }
      ],
      "stateMutability": "view",
      "type": "function"
    }
  ],
  "bytecode": "0x61016060405261c4e060045560046005556064600755348015610020575f80fd5b50604080518082018252601581527f47686f7374526f75746520476f7665726e616e63650000000000000000000000602080830191909152825180840190935260018352603160f81b9083015290610079826002610183565b61012052610088816003610183565b61014052815160208084019190912060e052815190820120610100524660a05261011460e05161010051604080517f8b73c3c69bb8fe3d512ecc4cf759cc79239f7b179b0ffacaa9a75d522b39400f60208201529081019290925260608201524660808201523060a08201525f9060c00160405160208183030381529060405280519060200120905090565b60805250503060c0526101275f336101b5565b506101527f928a06763e707c43312a1f59b5552de4dc7c2264c9bf9418d4e285b103cbcb22336101b5565b5061017d7fd8aa0f3194971a2a116679f7c2090f6939c8d4e01a2a8d7e41d55e5351469e63336101b5565b5061044c565b5f60208351101561019e576101978361025c565b90506101af565b816101a9848261033a565b5060ff90505b92915050565b5f828152602081815260408083206001600160a01b038516845290915281205460ff16610255575f838152602081815260408083206001600160a01b03861684529091529020805460ff1916600117905561020d3390565b6001600160a01b0316826001600160a01b0316847f2f8788117e7eff1d82e926ec794901d17c78024a50270940304540a733656f0d60405160405180910390a45060016101af565b505f6101af565b5f80829050601f8151111561028f578260405163305a27a960e01b815260040161028691906103f4565b60405180910390fd5b805161029a82610429565b179392505050565b634e487b7160e01b5f52604160045260245ffd5b600181811c908216806102ca57607f821691505b6020821081036102e857634e487b7160e01b5f52602260045260245ffd5b50919050565b601f82111561033557805f5260205f20601f840160051c810160208510156103135750805b601f840160051c820191505b81811015610332575f815560010161031f565b50505b505050565b81516001600160401b03811115610353576103536102a2565b6103678161036184546102b6565b846102ee565b6020601f821160018114610399575f83156103825750848201515b5f19600385901b1c1916600184901b178455610332565b5f84815260208120601f198516915b828110156103c857878501518255602094850194600190920191016103a8565b50848210156103e557868401515f19600387901b60f8161c191681555b50505050600190811b01905550565b602081525f82518060208401528060208501604085015e5f604082850101526040601f19601f83011684010191505092915050565b805160208083015191908110156102e8575f1960209190910360031b1b16919050565b60805160a05160c05160e05161010051610120516101405161230661048e5f395f6119b001525f61197e01525f50505f50505f50505f50505f50506123065ff3fe608060405234801561000f575f80fd5b5060043610610208575f3560e01c80638456cb591161011f578063c07473f6116100a9578063da35c66411610079578063da35c664146104e9578063e2d1e75c146104f2578063e5550e45146104fb578063ea0217cf1461050e578063f36c8f5c14610521575f80fd5b8063c07473f614610491578063c1ba4e59146104b0578063c5456dff146104c3578063d547741f146104d6575f80fd5b80639386775a116100ef5780639386775a1461041657806396b63e3d14610439578063980ff6c61461044c578063a217fddf1461045f578063a536d6e714610466575f80fd5b80638456cb59146103b957806384b0196e146103c1578063853b94a0146103dc57806391d1485414610403575f80fd5b806336568abe116101a057806347d0da141161017057806347d0da141461033f5780634c051100146103525780635c975abb14610374578063721374361461037f578063766ee860146103a6575f80fd5b806336568abe146102f157806337376ca8146103045780633f4ba83a14610317578063430694cf1461031f575f80fd5b8063248a9ca3116101db578063248a9ca31461027b578063274b91a91461029d5780632f2ff15d146102b257806332ed5b12146102c5575f80fd5b806301ffc9a71461020c57806302a251a31461023457806307bd02651461024b5780631703a01814610272575b5f80fd5b61021f61021a366004611b65565b610548565b60405190151581526020015b60405180910390f35b61023d60045481565b60405190815260200161022b565b61023d7fd8aa0f3194971a2a116679f7c2090f6939c8d4e01a2a8d7e41d55e5351469e6381565b61023d60055481565b61023d610289366004611b93565b5f9081526020819052604090206001015490565b6102b06102ab366004611bc5565b61057e565b005b6102b06102c0366004611bed565b6105e1565b6102d86102d3366004611b93565b61060b565b60405161022b9d9c9b9a99989796959493929190611c79565b6102b06102ff366004611bed565b61078e565b6102b0610312366004611b93565b6107c6565b6102b0610870565b61033261032d366004611b93565b610885565b60405161022b9190611d0c565b6102b061034d366004611b93565b610ada565b610365610360366004611b93565b610baf565b60405161022b93929190611e24565b60015460ff1661021f565b61023d7f928a06763e707c43312a1f59b5552de4dc7c2264c9bf9418d4e285b103cbcb2281565b6102b06103b4366004611f07565b610df8565b6102b061107b565b6103c961108d565b60405161022b9796959493929190611f63565b61023d7f54d0d5db77a84e307e20cea0cdacd83a12539f480e5476bf817402f607afcc1981565b61021f610411366004611bed565b6110cf565b610429610424366004611bed565b6110f7565b60405161022b9493929190611fd2565b6102b0610447366004611b93565b6111bf565b6102b061045a366004611b93565b611298565b61023d5f81565b61047961047436600461200a565b6113e3565b6040516001600160a01b03909116815260200161022b565b61023d61049f36600461202a565b600b6020525f908152604090205481565b6102b06104be366004611b93565b611417565b61023d6104d1366004612043565b61145e565b6102b06104e4366004611bed565b611746565b61023d60065481565b61023d60075481565b6102b0610509366004611b93565b61176a565b6102b061051c366004611b93565b6117a9565b61023d7f71840dc4906352362b0cdaf79870196c8e42acafade72d5d5a6d59291253ceb181565b5f6001600160e01b03198216637965db0b60e01b148061057857506301ffc9a760e01b6001600160e01b03198316145b92915050565b5f610588816117e8565b6001600160a01b0383165f818152600b602052604090819020849055517f36ac285914fb5fd49dd16e36cab1e696eda836080e3a61ff587c8671cbbdcab9906105d49085815260200190565b60405180910390a2505050565b5f828152602081905260409020600101546105fb816117e8565b61060583836117f2565b50505050565b60086020525f9081526040902080546001820154600283015460038401805493946001600160a01b0390931693919291610644906120c5565b80601f0160208091040260200160405190810160405280929190818152602001828054610670906120c5565b80156106bb5780601f10610692576101008083540402835291602001916106bb565b820191905f5260205f20905b81548152906001019060200180831161069e57829003601f168201915b50505050600483015460058401546006850154600786015460088701546009880154600a890180549899969895975093959294919360ff808316946101009093041692610707906120c5565b80601f0160208091040260200160405190810160405280929190818152602001828054610733906120c5565b801561077e5780601f106107555761010080835404028352916020019161077e565b820191905f5260205f20905b81548152906001019060200180831161076157829003601f168201915b50505050509080600b015490508d565b6001600160a01b03811633146107b75760405163334bd91960e11b815260040160405180910390fd5b6107c18282611881565b505050565b5f6107d0816117e8565b5f82815260086020526040902080546108045760405163e2acee5b60e01b8152600481018490526024015b60405180910390fd5b6009810154610100900460ff16156108325760405163134c704360e11b8152600481018490526024016107fb565b60098101805460ff1916600517905560405183907f7bf38ee614622e33a85c9c8b9f0dca88e471d781640cddbb75c90e2bdeb6e125905f90a2505050565b5f61087a816117e8565b6108826118ea565b50565b604080516101a080820183525f808352602080840182905283850182905260608085018190526080850183905260a0850183905260c0850183905260e08501839052610100850183905261012085018390526101408501839052610160850181905261018085018390528683526008825291859020855193840186528054845260018101546001600160a01b031691840191909152600281015494830194909452600384018054939492939184019161093d906120c5565b80601f0160208091040260200160405190810160405280929190818152602001828054610969906120c5565b80156109b45780601f1061098b576101008083540402835291602001916109b4565b820191905f5260205f20905b81548152906001019060200180831161099757829003601f168201915b50505091835250506004820154602082015260058083015460408301526006830154606083015260078301546080830152600883015460a0830152600983015460c09092019160ff1690811115610a0d57610a0d611c45565b6005811115610a1e57610a1e611c45565b81526009820154610100900460ff1615156020820152600a82018054604090920191610a49906120c5565b80601f0160208091040260200160405190810160405280929190818152602001828054610a75906120c5565b8015610ac05780601f10610a9757610100808354040283529160200191610ac0565b820191905f5260205f20905b815481529060010190602001808311610aa357829003601f168201915b50505050508152602001600b820154815250509050919050565b7fd8aa0f3194971a2a116679f7c2090f6939c8d4e01a2a8d7e41d55e5351469e63610b04816117e8565b5f8281526008602052604090208054610b335760405163e2acee5b60e01b8152600481018490526024016107fb565b6002600982015460ff166005811115610b4e57610b4e611c45565b14610b6f57604051631f5902cb60e01b8152600481018490526024016107fb565b60098101805461ffff191661010417905560405183907f7b1bcf1ccf901a11589afff5504d59fd0a53780eed2a952adade0348985139e0905f90a2505050565b60608060605f600a5f8681526020019081526020015f20805480602002602001604051908101604052809291908181526020018280548015610c1857602002820191905f5260205f20905b81546001600160a01b03168152600190910190602001808311610bfa575b50505050509050805167ffffffffffffffff811115610c3957610c396120fd565b604051908082528060200260200182016040528015610c62578160200160208202803683370190505b509350805167ffffffffffffffff811115610c7f57610c7f6120fd565b604051908082528060200260200182016040528015610ca8578160200160208202803683370190505b509250805167ffffffffffffffff811115610cc557610cc56120fd565b604051908082528060200260200182016040528015610cee578160200160208202803683370190505b5091505f5b8151811015610def575f86815260096020526040812083518290859085908110610d1f57610d1f612111565b60200260200101516001600160a01b03166001600160a01b031681526020019081526020015f209050805f015f9054906101000a90046001600160a01b0316868381518110610d7057610d70612111565b60200260200101906001600160a01b031690816001600160a01b0316815250508060010154858381518110610da757610da7612111565b602002602001018181525050805f0160149054906101000a900460ff16848381518110610dd657610dd6612111565b9115156020928302919091019091015250600101610cf3565b50509193909250565b5f8481526008602052604090208054610e275760405163e2acee5b60e01b8152600481018690526024016107fb565b6001600982015460ff166005811115610e4257610e42611c45565b14610e635760405163673b9f7960e01b8152600481018690526024016107fb565b8060080154431115610e885760405163370ec37160e21b815260040160405180910390fd5b5f8581526009602090815260408083203384529091529020546001600160a01b031615610ed157604051630bcf2ea360e01b8152600481018690523360248201526044016107fb565b335f908152600b602052604081205490819003610f0157604051631f05dadd60e21b815260040160405180910390fd5b6040518060800160405280336001600160a01b03168152602001861515815260200182815260200185858080601f0160208091040260200160405190810160405280939291908181526020018383808284375f92018290525093909452505088815260096020908152604080832033845282529182902084518154928601511515600160a01b026001600160a81b03199093166001600160a01b03919091161791909117815590830151600182015560608301519091506002820190610fc79082612170565b5050505f868152600a602090815260408220805460018101825590835291200180546001600160a01b03191633179055841561101b5780826005015f828254611010919061223f565b909155506110349050565b80826006015f82825461102e919061223f565b90915550505b60408051861515815260208101839052339188917f9bc1d007e9f894b0900fab4b7e20029267e704c85851e5470c30a1e1b239e090910160405180910390a3505050505050565b5f611085816117e8565b61088261193c565b5f6060805f805f606061109e611977565b6110a66119a9565b604080515f80825260208201909252600f60f81b9b939a50919850469750309650945092509050565b5f918252602082815260408084206001600160a01b0393909316845291905290205460ff1690565b600960209081525f92835260408084209091529082529020805460018201546002830180546001600160a01b03841694600160a01b90940460ff1693919061113e906120c5565b80601f016020809104026020016040519081016040528092919081815260200182805461116a906120c5565b80156111b55780601f1061118c576101008083540402835291602001916111b5565b820191905f5260205f20905b81548152906001019060200180831161119857829003601f168201915b5050505050905084565b5f81815260086020526040902080546111ee5760405163e2acee5b60e01b8152600481018390526024016107fb565b5f600982015460ff16600581111561120857611208611c45565b146112295760405163e9dbcebd60e01b8152600481018390526024016107fb565b600754816007015461123b919061223f565b43101561125b5760405163370ec37160e21b815260040160405180910390fd5b60098101805460ff1916600117905560405182907f249fc1602c992f8290e6b3e3f803b815f83d14299421c7c2bdf19b778a99fea5905f90a25050565b7fd8aa0f3194971a2a116679f7c2090f6939c8d4e01a2a8d7e41d55e5351469e636112c2816117e8565b5f82815260086020526040902080546112f15760405163e2acee5b60e01b8152600481018490526024016107fb565b6001600982015460ff16600581111561130c5761130c611c45565b1461132d5760405163673b9f7960e01b8152600481018490526024016107fb565b806008015443116113515760405163370ec37160e21b815260040160405180910390fd5b6009810154610100900460ff161561137f5760405163134c704360e11b8152600481018490526024016107fb565b80600601548160050154116113a057600901805460ff191660031790555050565b6005545f848152600a602052604090205410156113d057604051636bcf412560e11b815260040160405180910390fd5b600901805460ff191660021790555b5050565b600a602052815f5260405f2081815481106113fc575f80fd5b5f918252602090912001546001600160a01b03169150829050565b5f611421816117e8565b60058290556040518281527ff18f88786aae85a652aadb99a82462616489a33370c9bcc7b245906812ef7cd1906020015b60405180910390a15050565b5f7f928a06763e707c43312a1f59b5552de4dc7c2264c9bf9418d4e285b103cbcb22611489816117e8565b876114a757604051631dc0650160e31b815260040160405180910390fd5b5f88888888600654426040516020016114c596959493929190612252565b60408051601f198184030181529190528051602090910120600680549192505f6114ee8361227a565b9190505550604051806101a00160405280828152602001336001600160a01b031681526020018a815260200189898080601f0160208091040260200160405190810160405280939291908181526020018383808284375f92018290525093855250505060208201899052604082018190526060820152436080820181905260075460045460a0909301929091611584919061223f565b61158e919061223f565b81526020015f81526020015f1515815260200186868080601f0160208091040260200160405190810160405280939291908181526020018383808284375f920182905250938552505042602093840152508381526008825260409081902083518155918301516001830180546001600160a01b0319166001600160a01b039092169190911790558201516002820155606082015160038201906116319082612170565b506080820151816004015560a0820151816005015560c0820151816006015560e082015181600701556101008201518160080155610120820151816009015f6101000a81548160ff0219169083600581111561168f5761168f611c45565b02179055506101408201516009820180549115156101000261ff0019909216919091179055610160820151600a8201906116c99082612170565b5061018082015181600b0155905050336001600160a01b0316817fab1913d0b4da821e814deb85bc141db403dcc3c83b9c8561f1fc2315b365273487874360075460045443611718919061223f565b611722919061223f565b6040516117329493929190612292565b60405180910390a398975050505050505050565b5f82815260208190526040902060010154611760816117e8565b6106058383611881565b5f611774816117e8565b60078290556040518281527f2547d7c5b7b91e96a448ddecbb45eddcb685e9a0472f05ab156f0682120c365790602001611452565b5f6117b3816117e8565b60048290556040518281527f651c77f42613a075437aa794c44471e3abc3a661956a67aaee165bb7396974aa90602001611452565b61088281336119d6565b5f6117fd83836110cf565b61187a575f838152602081815260408083206001600160a01b03861684529091529020805460ff191660011790556118323390565b6001600160a01b0316826001600160a01b0316847f2f8788117e7eff1d82e926ec794901d17c78024a50270940304540a733656f0d60405160405180910390a4506001610578565b505f610578565b5f61188c83836110cf565b1561187a575f838152602081815260408083206001600160a01b0386168085529252808320805460ff1916905551339286917ff6391f5c32d9c69d2a47ea670b442974b53935d1edc7fd64eb21e047a839171b9190a4506001610578565b6118f2611a0f565b6001805460ff191690557f5db9ee0a495bf2e6ff9c91a7834c1ba4fdd244a5e8aa4e537bd38aeae4b073aa335b6040516001600160a01b03909116815260200160405180910390a1565b611944611a34565b6001805460ff1916811790557f62e78cea01bee320cd4e420270b5ea74000d11b0c9f74754ebdbfc544b05a2583361191f565b60606119a47f00000000000000000000000000000000000000000000000000000000000000006002611a58565b905090565b60606119a47f00000000000000000000000000000000000000000000000000000000000000006003611a58565b6119e082826110cf565b6113df5760405163e2517d3f60e01b81526001600160a01b0382166004820152602481018390526044016107fb565b60015460ff16611a3257604051638dfc202b60e01b815260040160405180910390fd5b565b60015460ff1615611a325760405163d93c066560e01b815260040160405180910390fd5b606060ff8314611a7257611a6b83611b01565b9050610578565b818054611a7e906120c5565b80601f0160208091040260200160405190810160405280929190818152602001828054611aaa906120c5565b8015611af55780601f10611acc57610100808354040283529160200191611af5565b820191905f5260205f20905b815481529060010190602001808311611ad857829003601f168201915b50505050509050610578565b60605f611b0d83611b3e565b6040805160208082528183019092529192505f91906020820181803683375050509182525060208101929092525090565b5f60ff8216601f81111561057857604051632cd44ac360e21b815260040160405180910390fd5b5f60208284031215611b75575f80fd5b81356001600160e01b031981168114611b8c575f80fd5b9392505050565b5f60208284031215611ba3575f80fd5b5035919050565b80356001600160a01b0381168114611bc0575f80fd5b919050565b5f8060408385031215611bd6575f80fd5b611bdf83611baa565b946020939093013593505050565b5f8060408385031215611bfe575f80fd5b82359150611c0e60208401611baa565b90509250929050565b5f81518084528060208401602086015e5f602082860101526020601f19601f83011685010191505092915050565b634e487b7160e01b5f52602160045260245ffd5b60068110611c7557634e487b7160e01b5f52602160045260245ffd5b9052565b8d815260018060a01b038d1660208201528b60408201526101a060608201525f611ca76101a083018d611c17565b8b60808401528a60a08401528960c08401528860e084015287610100840152611cd4610120840188611c59565b851515610140840152828103610160840152611cf08186611c17565b915050826101808301529e9d5050505050505050505050505050565b60208152815160208201525f6020830151611d3260408401826001600160a01b03169052565b506040830151606083015260608301516101a06080840152611d586101c0840182611c17565b9050608084015160a084015260a084015160c084015260c084015160e084015260e0840151610100840152610100840151610120840152610120840151611da3610140850182611c59565b5061014084015180151561016085015250610160840151838203601f1901610180850152611dd18282611c17565b9150506101808401516101a08401528091505092915050565b5f8151808452602084019350602083015f5b82811015611e1a578151865260209586019590910190600101611dfc565b5093949350505050565b606080825284519082018190525f9060208601906080840190835b81811015611e665783516001600160a01b0316835260209384019390920191600101611e3f565b50508381036020850152611e7a8187611dea565b848103604086015285518082526020808801945090910191505f5b81811015611eb55783511515835260209384019390920191600101611e95565b5090979650505050505050565b5f8083601f840112611ed2575f80fd5b50813567ffffffffffffffff811115611ee9575f80fd5b602083019150836020828501011115611f00575f80fd5b9250929050565b5f805f8060608587031215611f1a575f80fd5b8435935060208501358015158114611f30575f80fd5b9250604085013567ffffffffffffffff811115611f4b575f80fd5b611f5787828801611ec2565b95989497509550505050565b60ff60f81b8816815260e060208201525f611f8160e0830189611c17565b8281036040840152611f938189611c17565b606084018890526001600160a01b038716608085015260a0840186905283810360c08501529050611fc48185611dea565b9a9950505050505050505050565b60018060a01b03851681528315156020820152826040820152608060608201525f6120006080830184611c17565b9695505050505050565b5f806040838503121561201b575f80fd5b50508035926020909101359150565b5f6020828403121561203a575f80fd5b611b8c82611baa565b5f805f805f8060808789031215612058575f80fd5b86359550602087013567ffffffffffffffff811115612075575f80fd5b61208189828a01611ec2565b90965094505060408701359250606087013567ffffffffffffffff8111156120a7575f80fd5b6120b389828a01611ec2565b979a9699509497509295939492505050565b600181811c908216806120d957607f821691505b6020821081036120f757634e487b7160e01b5f52602260045260245ffd5b50919050565b634e487b7160e01b5f52604160045260245ffd5b634e487b7160e01b5f52603260045260245ffd5b601f8211156107c157805f5260205f20601f840160051c8101602085101561214a5750805b601f840160051c820191505b81811015612169575f8155600101612156565b5050505050565b815167ffffffffffffffff81111561218a5761218a6120fd565b61219e8161219884546120c5565b84612125565b6020601f8211600181146121d0575f83156121b95750848201515b5f19600385901b1c1916600184901b178455612169565b5f84815260208120601f198516915b828110156121ff57878501518255602094850194600190920191016121df565b508482101561221c57868401515f19600387901b60f8161c191681555b50505050600190811b01905550565b634e487b7160e01b5f52601160045260245ffd5b808201808211156105785761057861222b565b8681528486602083013760209401938401929092526040830152606082015260800192915050565b5f6001820161228b5761228b61222b565b5060010190565b60608152836060820152838560808301375f608085830101525f6080601f19601f87011683010190508360208301528260408301529594505050505056fea26469706673582212202c230269fbd31391104bb51935d05e354f90c9ca6c65b135af4b1b9cb31c784e64736f6c634300081a0033",
  "linkReferences": {},
  "deployedLinkReferences": {}
}