{
  "_format": "hh-sol-artifact-1",
  "contractName": "RouteRegistry",
  "sourceName": "contracts/RouteRegistry.sol",
  "abi": [
    {
      "inputs": [],
      "stateMutability": "nonpayable",
      "type": "constructor"
    },
    {
      "inputs": [],
      "name": "AccessControlBadConfirmation",
      "type": "error"
    },
    {
      "inputs": [
        {
          "internalType": "address",
          "name": "account",
          "type": "address"
        },
        {
          "internalType": "bytes32",
          "name": "neededRole",
          "type": "bytes32"
        }
      ],
      "name": "AccessControlUnauthorizedAccount",
      "type": "error"
    },
    {
      "inputs": [],
      "name": "AmountOutOfRange",
      "type": "error"
    },
    {
      "inputs": [],
      "name": "EnforcedPause",
      "type": "error"
    },
    {
      "inputs": [],
      "name": "ExpectedPause",
      "type": "error"
    },
    {
      "inputs": [],
      "name": "InvalidRouteParameters",
      "type": "error"
    },
    {
      "inputs": [
        {
          "internalType": "bytes32",
          "name": "id",
          "type": "bytes32"
        }
      ],
      "name": "RouteNotActive",
      "type": "error"
    },
    {
      "inputs": [
        {
          "internalType": "bytes32",
          "name": "id",
          "type": "bytes32"
        }
      ],
      "name": "RouteNotFound",
      "type": "error"
    },
    {
      "anonymous": false,
      "inputs": [
        {
          "indexed": false,
          "internalType": "address",
          "name": "account",
          "type": "address"
        }
      ],
      "name": "Paused",
      "type": "event"
    },
    {
      "anonymous": false,
      "inputs": [
        {
          "indexed": true,
          "internalType": "bytes32",
          "name": "role",
          "type": "bytes32"
        },
        {
          "indexed": true,
          "internalType": "bytes32",
          "name": "previousAdminRole",
          "type": "bytes32"
        },
        {
          "indexed": true,
          "internalType": "bytes32",
          "name": "newAdminRole",
          "type": "bytes32"
        }
      ],
      "name": "RoleAdminChanged",
      "type": "event"
    },
    {
      "anonymous": false,
      "inputs": [
        {
          "indexed": true,
          "internalType": "bytes32",
          "name": "role",
          "type": "bytes32"
        },
        {
          "indexed": true,
          "internalType": "address",
          "name": "account",
          "type": "address"
        },
        {
          "indexed": true,
          "internalType": "address",
          "name": "sender",
          "type": "address"
        }
      ],
      "name": "RoleGranted",
      "type": "event"
    },
    {
      "anonymous": false,
      "inputs": [
        {
          "indexed": true,
          "internalType": "bytes32",
          "name": "role",
          "type": "bytes32"
        },
        {
          "indexed": true,
          "internalType": "address",
          "name": "account",
          "type": "address"
        },
        {
          "indexed": true,
          "internalType": "address",
          "name": "sender",
          "type": "address"
        }
      ],
      "name": "RoleRevoked",
      "type": "event"
    },
    {
      "anonymous": false,
      "inputs": [
        {
          "indexed": true,
          "internalType": "bytes32",
          "name": "id",
          "type": "bytes32"
        },
        {
          "indexed": false,
          "internalType": "uint256",
          "name": "amount",
          "type": "uint256"
        },
        {
          "indexed": false,
          "internalType": "uint256",
          "name": "latency",
          "type": "uint256"
        },
        {
          "indexed": false,
          "internalType": "bool",
          "name": "success",
          "type": "bool"
        }
      ],
      "name": "RouteExecuted",
      "type": "event"
    },
    {
      "anonymous": false,
      "inputs": [
        {
          "indexed": true,
          "internalType": "bytes32",
          "name": "id",
          "type": "bytes32"
        },
        {
          "indexed": false,
          "internalType": "string",
          "name": "name",
          "type": "string"
        },
        {
          "indexed": false,
          "internalType": "uint256",
          "name": "sourceChain",
          "type": "uint256"
        },
        {
          "indexed": false,
          "internalType": "uint256",
          "name": "destChain",
          "type": "uint256"
        }
      ],
      "name": "RouteRegistered",
      "type": "event"
    },
    {
      "anonymous": false,
      "inputs": [
        {
          "indexed": true,
          "internalType": "bytes32",
          "name": "id",
          "type": "bytes32"
        }
      ],
      "name": "RouteRetired",
      "type": "event"
    },
    {
      "anonymous": false,
      "inputs": [
        {
          "indexed": true,
          "internalType": "bytes32",
          "name": "id",
          "type": "bytes32"
        },
        {
          "indexed": false,
          "internalType": "enum RouteRegistry.RouteStatus",
          "name": "status",
          "type": "uint8"
        }
      ],
      "name": "RouteUpdated",
      "type": "event"
    },
    {
      "anonymous": false,
      "inputs": [
        {
          "indexed": false,
          "internalType": "address",
          "name": "account",
          "type": "address"
        }
      ],
      "name": "Unpaused",
      "type": "event"
    },
    {
      "inputs": [],
      "name": "DEFAULT_ADMIN_ROLE",
      "outputs": [
        {
          "internalType": "bytes32",
          "name": "",
          "type": "bytes32"
        }
      ],
      "stateMutability": "view",
      "type": "function"
    },
    {
      "inputs": [],
      "name": "GOVERNANCE_ROLE",
      "outputs": [
        {
          "internalType": "bytes32",
          "name": "",
          "type": "bytes32"
        }
      ],
      "stateMutability": "view",
      "type": "function"
    },
    {
      "inputs": [],
      "name": "ROUTE_MANAGER_ROLE",
      "outputs": [
        {
          "internalType": "bytes32",
          "name": "",
          "type": "bytes32"
        }
      ],
      "stateMutability": "view",
      "type": "function"
    },
    {
      "inputs": [
        {
          "internalType": "uint256",
          "name": "",
          "type": "uint256"
        }
      ],
      "name": "allRoutes",
      "outputs": [
        {
          "internalType": "bytes32",
          "name": "",
          "type": "bytes32"
        }
      ],
      "stateMutability": "view",
      "type": "function"
    },
    {
      "inputs": [
        {
          "internalType": "uint256",
          "name": "",
          "type": "uint256"
        },
        {
          "internalType": "uint256",
          "name": "",
          "type": "uint256"
        }
      ],
      "name": "chainRoutes",
      "outputs": [
        {
          "internalType": "bytes32",
          "name": "",
          "type": "bytes32"
        }
      ],
      "stateMutability": "view",
      "type": "function"
    },
    {
      "inputs": [],
      "name": "getAllRoutes",
      "outputs": [
        {
          "internalType": "bytes32[]",
          "name": "",
          "type": "bytes32[]"
        }
      ],
      "stateMutability": "view",
      "type": "function"
    },
    {
      "inputs": [
        {
          "internalType": "uint256",
          "name": "chainId",
          "type": "uint256"
        }
      ],
      "name": "getChainRoutes",
      "outputs": [
        {
          "internalType": "bytes32[]",
          "name": "",
          "type": "bytes32[]"
        }
      ],
      "stateMutability": "view",
      "type": "function"
    },
    {
      "inputs": [
        {
          "internalType": "bytes32",
          "name": "role",
          "type": "bytes32"
        }
      ],
      "name": "getRoleAdmin",
      "outputs": [
        {
          "internalType": "bytes32",
          "name": "",
          "type": "bytes32"
        }
      ],
      "stateMutability": "view",
      "type": "function"
    },
    {
      "inputs": [
        {
          "internalType": "bytes32",
          "name": "id",
          "type": "bytes32"
        }
      ],
      "name": "getRoute",
      "outputs": [
        {
          "components": [
            {
              "internalType": "bytes32",
              "name": "id",
              "type": "bytes32"
            },
            {
              "internalType": "string",
              "name": "name",
              "type": "string"
            },
            {
              "internalType": "uint256",
              "name": "sourceChain",
              "type": "uint256"
            },
            {
              "internalType": "uint256",
              "name": "destChain",
              "type": "uint256"
            },
            {
              "internalType": "address[]",
              "name": "bridges",
              "type": "address[]"
            },
            {
              "internalType": "address[]",
              "name": "dexes",
              "type": "address[]"
            },
            {
              "internalType": "uint256",
              "name": "maxAmount",
              "type": "uint256"
            },
            {
              "internalType": "uint256",
              "name": "minAmount",
              "type": "uint256"
            },
            {
              "internalType": "uint256",
              "name": "avgLatency",
              "type": "uint256"
            },
            {
              "internalType": "uint256",
              "name": "successRate",
              "type": "uint256"
            },
            {
              "internalType": "uint256",
              "name": "totalVolume",
              "type": "uint256"
            },
            {
              "internalType": "uint256",
              "name": "totalExecutions",
              "type": "uint256"
            },
            {
              "internalType": "enum RouteRegistry.RouteStatus",
              "name": "status",
              "type": "uint8"
            },
            {
              "internalType": "uint256",
              "name": "createdAt",
              "type": "uint256"
            },
            {
              "internalType": "uint256",
              "name": "updatedAt",
              "type": "uint256"
            }
          ],
          "internalType": "struct RouteRegistry.Route",
          "name": "",
          "type": "tuple"
        }
      ],
      "stateMutability": "view",
      "type": "function"
    },
    {
      "inputs": [],
      "name": "getRouteCount",
      "outputs": [
        {
          "internalType": "uint256",
          "name": "",
          "type": "uint256"
        }
      ],
      "stateMutability": "view",
      "type": "function"
    },
    {
      "inputs": [
        {
          "internalType": "bytes32",
          "name": "role",
          "type": "bytes32"
        },
        {
          "internalType": "address",
          "name": "account",
          "type": "address"
        }
      ],
      "name": "grantRole",
      "outputs": [],
      "stateMutability": "nonpayable",
      "type": "function"
    },
    {
      "inputs": [
        {
          "internalType": "bytes32",
          "name": "role",
          "type": "bytes32"
        },
        {
          "internalType": "address",
          "name": "account",
          "type": "address"
        }
      ],
      "name": "hasRole",
      "outputs": [
        {
          "internalType": "bool",
          "name": "",
          "type": "bool"
        }
      ],
      "stateMutability": "view",
      "type": "function"
    },
    {
      "inputs": [],
      "name": "pause",
      "outputs": [],
      "stateMutability": "nonpayable",
      "type": "function"
    },
    {
      "inputs": [],
      "name": "paused",
      "outputs": [
        {
          "internalType": "bool",
          "name": "",
          "type": "bool"
        }
      ],
      "stateMutability": "view",
      "type": "function"
    },
    {
      "inputs": [
        {
          "internalType": "bytes32",
          "name": "routeId",
          "type": "bytes32"
        },
        {
          "internalType": "uint256",
          "name": "amount",
          "type": "uint256"
        },
        {
          "internalType": "uint256",
          "name": "latency",
          "type": "uint256"
        },
        {
          "internalType": "bool",
          "name": "success",
          "type": "bool"
        }
      ],
      "name": "recordExecution",
      "outputs": [],
      "stateMutability": "nonpayable",
      "type": "function"
    },
    {
      "inputs": [
        {
          "internalType": "string",
          "name": "name",
          "type": "string"
        },
        {
          "internalType": "uint256",
          "name": "sourceChain",
          "type": "uint256"
        },
        {
          "internalType": "uint256",
          "name": "destChain",
          "type": "uint256"
        },
        {
          "internalType": "address[]",
          "name": "bridges",
          "type": "address[]"
        },
        {
          "internalType": "address[]",
          "name": "dexes",
          "type": "address[]"
        },
        {
          "internalType": "uint256",
          "name": "maxAmount",
          "type": "uint256"
        },
        {
          "internalType": "uint256",
          "name": "minAmount",
          "type": "uint256"
        }
      ],
      "name": "registerRoute",
      "outputs": [
        {
          "internalType": "bytes32",
          "name": "",
          "type": "bytes32"
        }
      ],
      "stateMutability": "nonpayable",
      "type": "function"
    },
    {
      "inputs": [
        {
          "internalType": "bytes32",
          "name": "role",
          "type": "bytes32"
        },
        {
          "internalType": "address",
          "name": "callerConfirmation",
          "type": "address"
        }
      ],
      "name": "renounceRole",
      "outputs": [],
      "stateMutability": "nonpayable",
      "type": "function"
    },
    {
      "inputs": [
        {
          "internalType": "bytes32",
          "name": "role",
          "type": "bytes32"
        },
        {
          "internalType": "address",
          "name": "account",
          "type": "address"
        }
      ],
      "name": "revokeRole",
      "outputs": [],
      "stateMutability": "nonpayable",
      "type": "function"
    },
    {
      "inputs": [
        {
          "internalType": "bytes32",
          "name": "",
          "type": "bytes32"
        }
      ],
      "name": "routes",
      "outputs": [
        {
          "internalType": "bytes32",
          "name": "id",
          "type": "bytes32"
        },
        {
          "internalType": "string",
          "name": "name",
          "type": "string"
        },
        {
          "internalType": "uint256",
          "name": "sourceChain",
          "type": "uint256"
        },
        {
          "internalType": "uint256",
          "name": "destChain",
          "type": "uint256"
        },
        {
          "internalType": "uint256",
          "name": "maxAmount",
          "type": "uint256"
        },
        {
          "internalType": "uint256",
          "name": "minAmount",
          "type": "uint256"
        },
        {
          "internalType": "uint256",
          "name": "avgLatency",
          "type": "uint256"
        },
        {
          "internalType": "uint256",
          "name": "successRate",
          "type": "uint256"
        },
        {
          "internalType": "uint256",
          "name": "totalVolume",
          "type": "uint256"
        },
        {
          "internalType": "uint256",
          "name": "totalExecutions",
          "type": "uint256"
        },
        {
          "internalType": "enum RouteRegistry.RouteStatus",
          "name": "status",
          "type": "uint8"
        },
        {
          "internalType": "uint256",
          "name": "createdAt",
          "type": "uint256"
        },
        {
          "internalType": "uint256",
          "name": "updatedAt",
          "type": "uint256"
        }
      ],
      "stateMutability": "view",
      "type": "function"
    },
    {
      "inputs": [
        {
          "internalType": "bytes4",
          "name": "interfaceId",
          "type": "bytes4"
        }
      ],
      "name": "supportsInterface",
      "outputs": [
        {
          "internalType": "bool",
          "name": "",
          "type": "bool"
        }
      ],
      "stateMutability": "view",
      "type": "function"
    },
    {
      "inputs": [],
      "name": "unpause",
      "outputs": [],
      "stateMutability": "nonpayable",
      "type": "function"
    },
    {
      "inputs": [
        {
          "internalType": "bytes32",
          "name": "routeId",
          "type": "bytes32"
        },
        {
          "internalType": "enum RouteRegistry.RouteStatus",
          "name": "status",
          "type": "uint8"
        }
      ],
      "name": "updateRouteStatus",
      "outputs": [],
      "stateMutability": "nonpayable",
      "type": "function"
    }
  ],
  "bytecode": "0x608060405234801561000f575f80fd5b5061001a5f33610076565b506100457f71840dc4906352362b0cdaf79870196c8e42acafade72d5d5a6d59291253ceb133610076565b506100707fff32f47f81c3355c3e671c226ab7a00f6a8916c3e7dc65572403fe543902d16933610076565b5061011f565b5f828152602081815260408083206001600160a01b038516845290915281205460ff16610116575f838152602081815260408083206001600160a01b03861684529091529020805460ff191660011790556100ce3390565b6001600160a01b0316826001600160a01b0316847f2f8788117e7eff1d82e926ec794901d17c78024a50270940304540a733656f0d60405160405180910390a4506001610119565b505f5b92915050565b61186a8061012c5f395ff3fe608060405234801561000f575f80fd5b506004361061013d575f3560e01c80635c975abb116100b45780639714deaa116100795780639714deaa14610298578063a217fddf146102ab578063b7d1bfc1146102b2578063d547741f146102c5578063e9207600146102d8578063f36c8f5c146102f8575f80fd5b80635c975abb1461024b5780637a0bba8d1461025657806383b6f4761461026a5780638456cb591461027d57806391d1485414610285575f80fd5b8063248a9ca311610105578063248a9ca3146101d25780632f2ff15d14610202578063322520571461021557806336568abe1461021d5780633f4ba83a146102305780634e8ab71c14610238575f80fd5b806301ffc9a714610141578063066e9481146101695780631d06b7d6146101955780631f696924146101aa57806320e38259146101bf575b5f80fd5b61015461014f366004611136565b61031f565b60405190151581526020015b60405180910390f35b61017c610177366004611164565b610355565b6040516101609d9c9b9a999897969594939291906111dd565b6101a86101a3366004611256565b610445565b005b6101b26104fc565b6040516101609190611287565b6101b26101cd366004611164565b610552565b6101f46101e0366004611164565b5f9081526020819052604090206001015490565b604051908152602001610160565b6101a86102103660046112c9565b6105b1565b6002546101f4565b6101a861022b3660046112c9565b6105db565b6101a8610613565b6101a86102463660046112f7565b610648565b60015460ff16610154565b6101f45f8051602061181583398151915281565b6101f4610278366004611164565b610798565b6101a86107b7565b6101546102933660046112c9565b6107e9565b6101f46102a6366004611381565b610811565b6101f45f81565b6101f46102c036600461146f565b610bc2565b6101a86102d33660046112c9565b610bed565b6102eb6102e6366004611164565b610c11565b60405161016091906114d2565b6101f47f71840dc4906352362b0cdaf79870196c8e42acafade72d5d5a6d59291253ceb181565b5f6001600160e01b03198216637965db0b60e01b148061034f57506301ffc9a760e01b6001600160e01b03198316145b92915050565b60036020525f908152604090208054600182018054919291610376906115c7565b80601f01602080910402602001604051908101604052809291908181526020018280546103a2906115c7565b80156103ed5780601f106103c4576101008083540402835291602001916103ed565b820191905f5260205f20905b8154815290600101906020018083116103d057829003601f168201915b50505050509080600201549080600301549080600601549080600701549080600801549080600901549080600a01549080600b01549080600c015f9054906101000a900460ff169080600d01549080600e015490508d565b5f8051602061181583398151915261045c81610e2c565b5f8381526003602052604090208054610490576040516380833e3360e01b8152600481018590526024015b60405180910390fd5b600c8101805484919060ff191660018360038111156104b1576104b16111a9565b021790555042600e82015560405184907f8570b1e7cfcec7c953143cbf4c8737e5128d1133fe9595ffa6f607f46f1ec3a4906104ee9086906115ff565b60405180910390a250505050565b6060600580548060200260200160405190810160405280929190818152602001828054801561054857602002820191905f5260205f20905b815481526020019060010190808311610534575b5050505050905090565b5f818152600460209081526040918290208054835181840281018401909452808452606093928301828280156105a557602002820191905f5260205f20905b815481526020019060010190808311610591575b50505050509050919050565b5f828152602081905260409020600101546105cb81610e2c565b6105d58383610e36565b50505050565b6001600160a01b03811633146106045760405163334bd91960e11b815260040160405180910390fd5b61060e8282610ec5565b505050565b7f71840dc4906352362b0cdaf79870196c8e42acafade72d5d5a6d59291253ceb161063d81610e2c565b610645610f2e565b50565b5f8051602061181583398151915261065f81610e2c565b5f858152600360205260409020805461068e576040516380833e3360e01b815260048101879052602401610487565b8481600a015f8282546106a19190611621565b9091555050600b81018054905f6106b783611634565b9091555050600b810154846106cd60018361164c565b83600801546106dc919061165f565b6106e69190611621565b6106f09190611676565b6008820155600b81015483610705575f610709565b6127105b61ffff16600183600b015461071e919061164c565b836009015461072d919061165f565b6107379190611621565b6107419190611676565b600982015542600e820155604080518681526020810186905284151581830152905187917f0d5854e1bada41691e1bed6bb3407861b10f78865e34f7e0872e42fe69f99589919081900360600190a2505050505050565b600581815481106107a7575f80fd5b5f91825260209091200154905081565b7f71840dc4906352362b0cdaf79870196c8e42acafade72d5d5a6d59291253ceb16107e181610e2c565b610645610f80565b5f918252602082815260408084206001600160a01b0393909316845291905290205460ff1690565b5f5f8051602061181583398151915261082981610e2c565b5f8b900361084a5760405163a57352f960e01b815260040160405180910390fd5b891580610855575088155b156108735760405163a57352f960e01b815260040160405180910390fd5b86158061087e575084155b1561089c5760405163a57352f960e01b815260040160405180910390fd5b5f8c8c8c8c426002546040516020016108ba96959493929190611695565b60408051601f198184030181529190528051602090910120600280549192505f6108e383611634565b9190505550604051806101e001604052808281526020018e8e8080601f0160208091040260200160405190810160405280939291908181526020018383808284375f9201919091525050509082525060208082018e905260408083018e905280518c830281810184019092528c8152606090930192918d918d918291908501908490808284375f920191909152505050908252506040805160208a810282810182019093528a82529283019290918b918b9182918501908490808284375f9201829052509385525050506020808301899052604080840189905260608401839052612710608085015260a0840183905260c0840183905260e08401839052426101008501819052610120909401939093528482526003815291902082518155908201516001820190610a15908261171b565b50604082015160028201556060820151600382015560808201518051610a45916004840191602090910190611041565b5060a08201518051610a61916005840191602090910190611041565b5060c0820151600682015560e0820151600782015561010082015160088201556101208201516009820155610140820151600a820155610160820151600b820155610180820151600c8201805460ff19166001836003811115610ac657610ac66111a9565b02179055506101a082015181600d01556101c082015181600e015590505060045f8c81526020019081526020015f2081908060018154018082558091505060019003905f5260205f20015f909190919091505560045f8b81526020019081526020015f2081908060018154018082558091505060019003905f5260205f20015f9091909190915055600581908060018154018082558091505060019003905f5260205f20015f9091909190915055807f3b5aac43bdae1c79fcca21b02f97f5dcd854a3988ad820cf93327b9bec0207108e8e8e8e604051610baa94939291906117d6565b60405180910390a29c9b505050505050505050505050565b6004602052815f5260405f208181548110610bdb575f80fd5b905f5260205f20015f91509150505481565b5f82815260208190526040902060010154610c0781610e2c565b6105d58383610ec5565b610c196110a4565b60035f8381526020019081526020015f20604051806101e00160405290815f8201548152602001600182018054610c4f906115c7565b80601f0160208091040260200160405190810160405280929190818152602001828054610c7b906115c7565b8015610cc65780601f10610c9d57610100808354040283529160200191610cc6565b820191905f5260205f20905b815481529060010190602001808311610ca957829003601f168201915b50505050508152602001600282015481526020016003820154815260200160048201805480602002602001604051908101604052809291908181526020018280548015610d3a57602002820191905f5260205f20905b81546001600160a01b03168152600190910190602001808311610d1c575b5050505050815260200160058201805480602002602001604051908101604052809291908181526020018280548015610d9a57602002820191905f5260205f20905b81546001600160a01b03168152600190910190602001808311610d7c575b505050918352505060068201546020820152600782015460408201526008820154606082015260098201546080820152600a82015460a0820152600b82015460c0820152600c82015460e09091019060ff166003811115610dfd57610dfd6111a9565b6003811115610e0e57610e0e6111a9565b8152600d8201546020820152600e9091015460409091015292915050565b6106458133610fbb565b5f610e4183836107e9565b610ebe575f838152602081815260408083206001600160a01b03861684529091529020805460ff19166001179055610e763390565b6001600160a01b0316826001600160a01b0316847f2f8788117e7eff1d82e926ec794901d17c78024a50270940304540a733656f0d60405160405180910390a450600161034f565b505f61034f565b5f610ed083836107e9565b15610ebe575f838152602081815260408083206001600160a01b0386168085529252808320805460ff1916905551339286917ff6391f5c32d9c69d2a47ea670b442974b53935d1edc7fd64eb21e047a839171b9190a450600161034f565b610f36610ff8565b6001805460ff191690557f5db9ee0a495bf2e6ff9c91a7834c1ba4fdd244a5e8aa4e537bd38aeae4b073aa335b6040516001600160a01b03909116815260200160405180910390a1565b610f8861101d565b6001805460ff1916811790557f62e78cea01bee320cd4e420270b5ea74000d11b0c9f74754ebdbfc544b05a25833610f63565b610fc582826107e9565b610ff45760405163e2517d3f60e01b81526001600160a01b038216600482015260248101839052604401610487565b5050565b60015460ff1661101b57604051638dfc202b60e01b815260040160405180910390fd5b565b60015460ff161561101b5760405163d93c066560e01b815260040160405180910390fd5b828054828255905f5260205f20908101928215611094579160200282015b8281111561109457825182546001600160a01b0319166001600160a01b0390911617825560209092019160019091019061105f565b506110a0929150611122565b5090565b604051806101e001604052805f8019168152602001606081526020015f81526020015f815260200160608152602001606081526020015f81526020015f81526020015f81526020015f81526020015f81526020015f81526020015f6003811115611110576111106111a9565b81526020015f81526020015f81525090565b5b808211156110a0575f8155600101611123565b5f60208284031215611146575f80fd5b81356001600160e01b03198116811461115d575f80fd5b9392505050565b5f60208284031215611174575f80fd5b5035919050565b5f81518084528060208401602086015e5f602082860101526020601f19601f83011685010191505092915050565b634e487b7160e01b5f52602160045260245ffd5b600481106111d957634e487b7160e01b5f52602160045260245ffd5b9052565b8d81526101a060208201525f6111f76101a083018f61117b565b90508c60408301528b60608301528a60808301528960a08301528860c08301528760e083015286610100830152856101208301526112396101408301866111bd565b61016082019390935261018001529b9a5050505050505050505050565b5f8060408385031215611267575f80fd5b8235915060208301356004811061127c575f80fd5b809150509250929050565b602080825282518282018190525f918401906040840190835b818110156112be5783518352602093840193909201916001016112a0565b509095945050505050565b5f80604083850312156112da575f80fd5b8235915060208301356001600160a01b038116811461127c575f80fd5b5f805f806080858703121561130a575f80fd5b8435935060208501359250604085013591506060850135801515811461132e575f80fd5b939692955090935050565b5f8083601f840112611349575f80fd5b50813567ffffffffffffffff811115611360575f80fd5b6020830191508360208260051b850101111561137a575f80fd5b9250929050565b5f805f805f805f805f8060e08b8d03121561139a575f80fd5b8a3567ffffffffffffffff8111156113b0575f80fd5b8b01601f81018d136113c0575f80fd5b803567ffffffffffffffff8111156113d6575f80fd5b8d60208284010111156113e7575f80fd5b60209182019b5099508b0135975060408b0135965060608b013567ffffffffffffffff811115611415575f80fd5b6114218d828e01611339565b90975095505060808b013567ffffffffffffffff811115611440575f80fd5b61144c8d828e01611339565b9b9e9a9d50989b979a969995989760a08101359660c09091013595509350505050565b5f8060408385031215611480575f80fd5b50508035926020909101359150565b5f8151808452602084019350602083015f5b828110156114c85781516001600160a01b03168652602095860195909101906001016114a1565b5093949350505050565b60208152815160208201525f60208301516101e060408401526114f961020084018261117b565b905060408401516060840152606084015160808401526080840151601f198483030160a085015261152a828261148f565b91505060a0840151601f198483030160c0850152611548828261148f565b91505060c084015160e084015260e08401516101008401526101008401516101208401526101208401516101408401526101408401516101608401526101608401516101808401526101808401516115a46101a08501826111bd565b506101a08401516101c08401526101c08401516101e08401528091505092915050565b600181811c908216806115db57607f821691505b6020821081036115f957634e487b7160e01b5f52602260045260245ffd5b50919050565b6020810161034f82846111bd565b634e487b7160e01b5f52601160045260245ffd5b8082018082111561034f5761034f61160d565b5f600182016116455761164561160d565b5060010190565b8181038181111561034f5761034f61160d565b808202811582820484141761034f5761034f61160d565b5f8261169057634e487b7160e01b5f52601260045260245ffd5b500490565b85878237909401928352602083019190915260408201526060810191909152608001919050565b634e487b7160e01b5f52604160045260245ffd5b601f82111561060e57805f5260205f20601f840160051c810160208510156116f55750805b601f840160051c820191505b81811015611714575f8155600101611701565b5050505050565b815167ffffffffffffffff811115611735576117356116bc565b6117498161174384546115c7565b846116d0565b6020601f82116001811461177b575f83156117645750848201515b5f19600385901b1c1916600184901b178455611714565b5f84815260208120601f198516915b828110156117aa578785015182556020948501946001909201910161178a565b50848210156117c757868401515f19600387901b60f8161c191681555b50505050600190811b01905550565b60608152836060820152838560808301375f608085830101525f6080601f19601f87011683010190508360208301528260408301529594505050505056feff32f47f81c3355c3e671c226ab7a00f6a8916c3e7dc65572403fe543902d169a26469706673582212206ca12bc3216d4f66e15f5c1197bc5a695ff71e8fa67d6a57f94bc2c6bdfc2b1264736f6c634300081a0033",
  "linkReferences": {},
  "deployedLinkReferences": {}
}